{"abi":[{"type":"constructor","inputs":[{"name":"_zkVerifier","type":"address","internalType":"address"},{"name":"_pythOracle","type":"address","internalType":"address payable"},{"name":"_fractionManager","type":"address","internalType":"address"}],"stateMutability":"nonpayable"},{"type":"function","name":"assets","inputs":[{"name":"","type":"uint256","internalType":"uint256"}],"outputs":[{"name":"issuer","type":"address","internalType":"address"},{"name":"documentHash","type":"string","internalType":"string"},{"name":"totalValue","type":"uint256","internalType":"uint256"},{"name":"fractionCount","type":"uint256","internalType":"uint256"},{"name":"minFractionSize","type":"uint256","internalType":"uint256"},{"name":"mintTimestamp","type":"uint256","internalType":"uint256"},{"name":"oraclePriceAtMint","type":"uint256","internalType":"uint256"},{"name":"priceId","type":"bytes32","internalType":"bytes32"},{"name":"verified","type":"bool","internalType":"bool"}],"stateMutability":"view"},{"type":"function","name":"balanceOf","inputs":[{"name":"account","type":"address","internalType":"address"},{"name":"id","type":"uint256","internalType":"uint256"}],"outputs":[{"name":"","type":"uint256","internalType":"uint256"}],"stateMutability":"view"},{"type":"function","name":"balanceOfBatch","inputs":[{"name":"accounts","type":"address[]","internalType":"address[]"},{"name":"ids","type":"uint256[]","internalType":"uint256[]"}],"outputs":[{"name":"","type":"uint256[]","internalType":"uint256[]"}],"stateMutability":"view"},{"type":"function","name":"burn","inputs":[{"name":"account","type":"address","internalType":"address"},{"name":"tokenId","type":"uint256","internalType":"uint256"},{"name":"amount","type":"uint256","internalType":"uint256"}],"outputs":[],"stateMutability":"nonpayable"},{"type":"function","name":"fractionManager","inputs":[],"outputs":[{"name":"","type":"address","internalType":"contract FractionManager"}],"stateMutability":"view"},{"type":"function","name":"getAssetMetadata","inputs":[{"name":"tokenId","type":"uint256","internalType":"uint256"}],"outputs":[{"name":"","type":"tuple","internalType":"struct RWATokenFactory.AssetMetadata","components":[{"name":"issuer","type":"address","internalType":"address"},{"name":"documentHash","type":"string","internalType":"string"},{"name":"totalValue","type":"uint256","internalType":"uint256"},{"name":"fractionCount","type":"uint256","internalType":"uint256"},{"name":"minFractionSize","type":"uint256","internalType":"uint256"},{"name":"mintTimestamp","type":"uint256","internalType":"uint256"},{"name":"oraclePriceAtMint","type":"uint256","internalType":"uint256"},{"name":"priceId","type":"bytes32","internalType":"bytes32"},{"name":"verified","type":"bool","internalType":"bool"}]}],"stateMutability":"view"},{"type":"function","name":"isApprovedForAll","inputs":[{"name":"account","type":"address","internalType":"address"},{"name":"operator","type":"address","internalType":"address"}],"outputs":[{"name":"","type":"bool","internalType":"bool"}],"stateMutability":"view"},{"type":"function","name":"mint","inputs":[{"name":"account","type":"address","internalType":"address"},{"name":"tokenId","type":"uint256","internalType":"uint256"},{"name":"amount","type":"uint256","internalType":"uint256"}],"outputs":[],"stateMutability":"nonpayable"},{"type":"function","name":"mintRWAToken","inputs":[{"name":"documentHash","type":"string","internalType":"string"},{"name":"totalValue","type":"uint256","internalType":"uint256"},{"name":"fractionCount","type":"uint256","internalType":"uint256"},{"name":"minFractionSize","type":"uint256","internalType":"uint256"},{"name":"lockupWeeks","type":"uint256","internalType":"uint256"},{"name":"zkProof","type":"bytes","internalType":"bytes"},{"name":"priceId","type":"bytes32","internalType":"bytes32"}],"outputs":[{"name":"tokenId","type":"uint256","internalType":"uint256"}],"stateMutability":"nonpayable"},{"type":"function","name":"nextTokenId","inputs":[],"outputs":[{"name":"","type":"uint256","internalType":"uint256"}],"stateMutability":"view"},{"type":"function","name":"owner","inputs":[],"outputs":[{"name":"","type":"address","internalType":"address"}],"stateMutability":"view"},{"type":"function","name":"purchaseFraction","inputs":[{"name":"tokenId","type":"uint256","internalType":"uint256"},{"name":"amount","type":"uint256","internalType":"uint256"},{"name":"buyerZKProof","type":"bytes","internalType":"bytes"}],"outputs":[],"stateMutability":"payable"},{"type":"function","name":"pythOracle","inputs":[],"outputs":[{"name":"","type":"address","internalType":"contract PythOracleReader"}],"stateMutability":"view"},{"type":"function","name":"renounceOwnership","inputs":[],"outputs":[],"stateMutability":"nonpayable"},{"type":"function","name":"safeBatchTransferFrom","inputs":[{"name":"from","type":"address","internalType":"address"},{"name":"to","type":"address","internalType":"address"},{"name":"ids","type":"uint256[]","internalType":"uint256[]"},{"name":"values","type":"uint256[]","internalType":"uint256[]"},{"name":"data","type":"bytes","internalType":"bytes"}],"outputs":[],"stateMutability":"nonpayable"},{"type":"function","name":"safeTransferFrom","inputs":[{"name":"from","type":"address","internalType":"address"},{"name":"to","type":"address","internalType":"address"},{"name":"id","type":"uint256","internalType":"uint256"},{"name":"value","type":"uint256","internalType":"uint256"},{"name":"data","type":"bytes","internalType":"bytes"}],"outputs":[],"stateMutability":"nonpayable"},{"type":"function","name":"setApprovalForAll","inputs":[{"name":"operator","type":"address","internalType":"address"},{"name":"approved","type":"bool","internalType":"bool"}],"outputs":[],"stateMutability":"nonpayable"},{"type":"function","name":"setURI","inputs":[{"name":"newuri","type":"string","internalType":"string"}],"outputs":[],"stateMutability":"nonpayable"},{"type":"function","name":"supportsInterface","inputs":[{"name":"interfaceId","type":"bytes4","internalType":"bytes4"}],"outputs":[{"name":"","type":"bool","internalType":"bool"}],"stateMutability":"view"},{"type":"function","name":"transferOwnership","inputs":[{"name":"newOwner","type":"address","internalType":"address"}],"outputs":[],"stateMutability":"nonpayable"},{"type":"function","name":"uri","inputs":[{"name":"","type":"uint256","internalType":"uint256"}],"outputs":[{"name":"","type":"string","internalType":"string"}],"stateMutability":"view"},{"type":"function","name":"withdraw","inputs":[],"outputs":[],"stateMutability":"nonpayable"},{"type":"function","name":"zkVerifier","inputs":[],"outputs":[{"name":"","type":"address","internalType":"contract ZKVerifier"}],"stateMutability":"view"},{"type":"event","name":"ApprovalForAll","inputs":[{"name":"account","type":"address","indexed":true,"internalType":"address"},{"name":"operator","type":"address","indexed":true,"internalType":"address"},{"name":"approved","type":"bool","indexed":false,"internalType":"bool"}],"anonymous":false},{"type":"event","name":"AssetMinted","inputs":[{"name":"tokenId","type":"uint256","indexed":true,"internalType":"uint256"},{"name":"issuer","type":"address","indexed":true,"internalType":"address"},{"name":"documentHash","type":"string","indexed":false,"internalType":"string"},{"name":"totalValue","type":"uint256","indexed":false,"internalType":"uint256"},{"name":"fractionCount","type":"uint256","indexed":false,"internalType":"uint256"},{"name":"priceId","type":"bytes32","indexed":false,"internalType":"bytes32"},{"name":"oraclePrice","type":"uint256","indexed":false,"internalType":"uint256"}],"anonymous":false},{"type":"event","name":"FractionPurchased","inputs":[{"name":"tokenId","type":"uint256","indexed":true,"internalType":"uint256"},{"name":"buyer","type":"address","indexed":true,"internalType":"address"},{"name":"amount","type":"uint256","indexed":false,"internalType":"uint256"},{"name":"totalCost","type":"uint256","indexed":false,"internalType":"uint256"}],"anonymous":false},{"type":"event","name":"OwnershipTransferred","inputs":[{"name":"previousOwner","type":"address","indexed":true,"internalType":"address"},{"name":"newOwner","type":"address","indexed":true,"internalType":"address"}],"anonymous":false},{"type":"event","name":"TransferBatch","inputs":[{"name":"operator","type":"address","indexed":true,"internalType":"address"},{"name":"from","type":"address","indexed":true,"internalType":"address"},{"name":"to","type":"address","indexed":true,"internalType":"address"},{"name":"ids","type":"uint256[]","indexed":false,"internalType":"uint256[]"},{"name":"values","type":"uint256[]","indexed":false,"internalType":"uint256[]"}],"anonymous":false},{"type":"event","name":"TransferSingle","inputs":[{"name":"operator","type":"address","indexed":true,"internalType":"address"},{"name":"from","type":"address","indexed":true,"internalType":"address"},{"name":"to","type":"address","indexed":true,"internalType":"address"},{"name":"id","type":"uint256","indexed":false,"internalType":"uint256"},{"name":"value","type":"uint256","indexed":false,"internalType":"uint256"}],"anonymous":false},{"type":"event","name":"URI","inputs":[{"name":"value","type":"string","indexed":false,"internalType":"string"},{"name":"id","type":"uint256","indexed":true,"internalType":"uint256"}],"anonymous":false},{"type":"error","name":"AssetNotFound","inputs":[]},{"type":"error","name":"BuyerNotEligible","inputs":[]},{"type":"error","name":"ERC1155InsufficientBalance","inputs":[{"name":"sender","type":"address","internalType":"address"},{"name":"balance","type":"uint256","internalType":"uint256"},{"name":"needed","type":"uint256","internalType":"uint256"},{"name":"tokenId","type":"uint256","internalType":"uint256"}]},{"type":"error","name":"ERC1155InvalidApprover","inputs":[{"name":"approver","type":"address","internalType":"address"}]},{"type":"error","name":"ERC1155InvalidArrayLength","inputs":[{"name":"idsLength","type":"uint256","internalType":"uint256"},{"name":"valuesLength","type":"uint256","internalType":"uint256"}]},{"type":"error","name":"ERC1155InvalidOperator","inputs":[{"name":"operator","type":"address","internalType":"address"}]},{"type":"error","name":"ERC1155InvalidReceiver","inputs":[{"name":"receiver","type":"address","internalType":"address"}]},{"type":"error","name":"ERC1155InvalidSender","inputs":[{"name":"sender","type":"address","internalType":"address"}]},{"type":"error","name":"ERC1155MissingApprovalForAll","inputs":[{"name":"operator","type":"address","internalType":"address"},{"name":"owner","type":"address","internalType":"address"}]},{"type":"error","name":"InsufficientFractionsAvailable","inputs":[]},{"type":"error","name":"InsufficientPayment","inputs":[]},{"type":"error","name":"InvalidFractionCount","inputs":[]},{"type":"error","name":"InvalidMinFractionSize","inputs":[]},{"type":"error","name":"InvalidTotalValue","inputs":[]},{"type":"error","name":"IssuerNotEligible","inputs":[]},{"type":"error","name":"OwnableInvalidOwner","inputs":[{"name":"owner","type":"address","internalType":"address"}]},{"type":"error","name":"OwnableUnauthorizedAccount","inputs":[{"name":"account","type":"address","internalType":"address"}]},{"type":"error","name":"PriceNotAvailable","inputs":[]},{"type":"error","name":"ReentrancyGuardReentrantCall","inputs":[]}],"bytecode":{"object":"0x608034620001f3576001600160401b0390601f620027f238819003918201601f1916830192919084841183851017620001df578160609284926040968752833981010312620001f3576200005381620001f7565b92602082015160018060a01b0392838216809203620001f35784620000799101620001f7565b918451602081019181831090831117620001df575f91865252600254600190600181811c91168015620001d4575b6020821014620001c057601f811162000176575b50505f60025533156200015f57600380546001600160a01b0319808216339081179093559551968592909183167f8be0079c531659141344cd1fd0a4f28419497f9722a3daafe3b4186f6b6457e05f80a360017f9b779b17422d0df92223018b32b4d1fa46e071723d6817e2486d003becc55f0055168460065416176006558360075416176007551690600854161760085560016005556125e590816200020d8239f35b8351631e4fbdf760e01b81525f6004820152602490fd5b60025f52601f0160051c7f405787fa12a823e0f2b7631cc41b3ba8828b3321ca811111fa75cd3aa3bb5ace908101905b818110620001b55750620000bb565b5f81558201620001a6565b634e487b7160e01b5f52602260045260245ffd5b90607f1690620000a7565b634e487b7160e01b5f52604160045260245ffd5b5f80fd5b51906001600160a01b0382168203620001f35756fe60806040526004361015610011575f80fd5b5f3560e01c8062fdd58e1461018357806301ffc9a71461017e57806302fe53051461017957806305c4b02e146101745780630e89341c1461016f578063156e29f61461016a5780632eb2c2d6146101655780633ccfd60b146101605780634e1273f41461015b57806350e45d1514610156578063715018a61461015157806375794a3c1461014c57806380116cc4146101475780638da5cb5b14610142578063a22cb4651461013d578063cf2acf8414610138578063cf35bdd014610133578063d6df096d1461012e578063e985e9c514610129578063f242432a14610124578063f2fde38b1461011f578063f5298aca1461011a5763f5d6ac9014610115575f80fd5b6114d1565b611409565b61137d565b611234565b6111d8565b6111b0565b611141565b610f29565b610dcb565b610d99565b610b5e565b610b41565b610ae6565b610a6b565b6109b1565b6108f6565b61071b565b610621565b610514565b6104ae565b610388565b610226565b6101cc565b600435906001600160a01b038216820361019e57565b5f80fd5b602435906001600160a01b038216820361019e57565b35906001600160a01b038216820361019e57565b3461019e57604036600319011261019e57602061020b6101ea610188565b6024355f525f835260405f209060018060a01b03165f5260205260405f2090565b54604051908152f35b6001600160e01b031981160361019e57565b3461019e57602036600319011261019e57602060043561024581610214565b63ffffffff60e01b16636cdb3d1360e11b8114908115610283575b8115610272575b506040519015158152f35b6301ffc9a760e01b1490505f610267565b6303a24d0760e21b81149150610260565b634e487b7160e01b5f52604160045260245ffd5b61012081019081106001600160401b038211176102c457604052565b610294565b6001600160401b0381116102c457604052565b602081019081106001600160401b038211176102c457604052565b90601f801991011681019081106001600160401b038211176102c457604052565b60405190610325826102a8565b565b6001600160401b0381116102c457601f01601f191660200190565b81601f8201121561019e5780359061035982610327565b9261036760405194856102f7565b8284526020838301011161019e57815f926020809301838601378301015290565b3461019e5760208060031936011261019e576001600160401b0360043581811161019e576103ba903690600401610342565b916103c3611cbf565b82519182116102c4576103e0826103db600254611015565b6119a4565b602090601f831160011461042057508190610410935f92610415575b50508160011b915f199060031b1c19161790565b600255005b015190505f806103fc565b90601f1983169361045260025f527f405787fa12a823e0f2b7631cc41b3ba8828b3321ca811111fa75cd3aa3bb5ace90565b925f905b86821061048c5750508360019510610474575b505050811b01600255005b01515f1960f88460031b161c191690555f8080610469565b80600185968294968601518155019501930190610456565b5f91031261019e57565b3461019e575f36600319011261019e576008546040516001600160a01b039091168152602090f35b91908251928382525f5b848110610500575050825f602080949584010152601f8019910116010190565b6020818301810151848301820152016104e0565b3461019e5760208060031936011261019e57604051905f826002549161053983611015565b92838352600190856001821691825f146105d757505060011461057c575b50610564925003836102f7565b6105786040519282849384528301906104d6565b0390f35b84915060025f527f405787fa12a823e0f2b7631cc41b3ba8828b3321ca811111fa75cd3aa3bb5ace905f915b8583106105bf57505061056493508201015f610557565b805483890185015287945086939092019181016105a8565b60ff19168582015261056495151560051b85010192505f91506105579050565b606090600319011261019e576004356001600160a01b038116810361019e57906024359060443590565b3461019e5761062f366105f7565b6008549192916001600160a01b0316330361065f5761065d9260405192610655846102dc565b5f8452611ceb565b005b60405162461bcd60e51b815260206004820152601d60248201527f4f6e6c79204672616374696f6e4d616e616765722063616e206d696e740000006044820152606490fd5b6001600160401b0381116102c45760051b60200190565b9080601f8301121561019e5760209082356106d5816106a4565b936106e360405195866102f7565b81855260208086019260051b82010192831161019e57602001905b82821061070c575050505090565b813581529083019083016106fe565b3461019e5760a036600319011261019e57610734610188565b61073c6101a2565b6044356001600160401b0380821161019e5761075d600492369084016106bb565b9260643582811161019e5761077590369085016106bb565b9160843590811161019e576107909094919436908501610342565b6008545f9291906107b1906001600160a01b03165b6001600160a01b031690565b925b8251811015610847576107c6818461150b565b51906107d2818761150b565b5191853b1561019e5760408051632f924f2f60e11b815289810192835260208301949094526001600160a01b038b16908201525f90839081906060010381885afa91821561084257600192610829575b50016107b3565b8061083661083c926102c9565b806104a4565b5f610822565b611533565b506006549093925085908790610865906001600160a01b03166107a5565b604051632db7781960e11b81526001600160a01b03841688820190815290916060918391908290819060200103915afa908115610842575f916108c4575b50156108b35761065d9550611e20565b604051632d3e478360e21b81528690fd5b6108e6915060603d6060116108ef575b6108de81836102f7565b81019061153e565b915050876108a3565b503d6108d4565b3461019e575f36600319011261019e5761090e611cbf565b5f80808060018060a01b036003541647905af161092961155f565b501561093157005b60405162461bcd60e51b815260206004820152601160248201527015da5d1a191c985dd85b0819985a5b1959607a1b6044820152606490fd5b9081518082526020808093019301915f5b828110610989575050505090565b83518552938101939281019260010161097b565b9060206109ae92818152019061096a565b90565b3461019e57604036600319011261019e576004356001600160401b0380821161019e573660238301121561019e5781600401356109ed816106a4565b926109fb60405194856102f7565b8184526020916024602086019160051b8301019136831161019e57602401905b828210610a54578560243586811161019e5761057891610a42610a489236906004016106bb565b9061158e565b6040519182918261099d565b838091610a60846101b8565b815201910190610a1b565b3461019e5760e036600319011261019e576001600160401b0360043581811161019e57610a9c903690600401610342565b9060a43590811161019e5761057891610abc610ad6923690600401610342565b5060c435906084359060643590604435906024359061164b565b6040519081529081906020820190565b3461019e575f36600319011261019e57610afe611cbf565b600380546001600160a01b031981169091555f906001600160a01b03167f8be0079c531659141344cd1fd0a4f28419497f9722a3daafe3b4186f6b6457e08280a3005b3461019e575f36600319011261019e576020600554604051908152f35b606036600319011261019e5760048035602435916044356001600160401b03811161019e57610b909036908301610342565b50610b99611f72565b610bab825f52600460205260405f2090565b80546001600160a01b039081168015610d8857600654610bd3906001600160a01b03166107a5565b604051632db7781960e11b81523386820190815290916060918391908290819060200103915afa908115610842575f91610d66575b5015610d55575f858152602081815260408083206001600160a01b03909416835292905220548511610d4457610c50610c45866002850154611bcb565b600384015490611c0c565b92833410610d35575091610cc9610cb7610ce293610ca25f808080887f9d29b36cc8e2e7206573027850643dafd4c522f3a9a0a090f0d19bda887a1cc39b600354165af1610c9c61155f565b50611c2a565b833411610d0e575b546001600160a01b031690565b8686610cc16114f9565b923390611fb4565b6040805195865260208601919091523394918291820190565b0390a361065d60017f9b779b17422d0df92223018b32b4d1fa46e071723d6817e2486d003becc55f0055565b610d305f808080610d1f8934611c76565b335af1610d2a61155f565b50611c83565b610caa565b60405163cd1c886760e01b8152fd5b6040516324af9dc560e01b81528390fd5b604051632d3e478360e21b81528490fd5b610d7f915060603d6060116108ef576108de81836102f7565b9150505f610c08565b60405163470cbf4760e01b81528490fd5b3461019e575f36600319011261019e576003546040516001600160a01b039091168152602090f35b8015150361019e57565b3461019e57604036600319011261019e57610de4610188565b602435610df081610dc1565b3315610e90576001600160a01b038216918215610e7957335f908152600160205260409020610e47918391610e3691905b9060018060a01b03165f5260205260405f2090565b9060ff801983541691151516179055565b604051901515815233907f17307eab39ab6107e8899845ad3d59bd9653f200f220920489ca2b5937696c3190602090a3005b60405162ced3e160e81b81525f6004820152602490fd5b604051631f18c42760e11b81525f6004820152602490fd5b602080825282516001600160a01b0316908201526109ae906020830151610edd610120918260408501526101408401906104d6565b936040810151606084015260608101516080840152608081015160a084015260a081015160c084015260c081015160e084015260e0810151906101009182850152015191019015159052565b3461019e57602036600319011261019e57610578604051610f49816102a8565b5f8152606060208201525f60408201525f60608201525f60808201525f60a08201525f60c08201525f60e08201525f610100809201526004355f52600460205261100960405f20916110016008610f9e610318565b85546001600160a01b0316815294610fb86001820161104d565b6020870152600281015460408701526003810154606087015260048101546080870152600581015460a0870152600681015460c0870152600781015460e0870152015460ff1690565b151590830152565b60405191829182610ea8565b90600182811c92168015611043575b602083101461102f57565b634e487b7160e01b5f52602260045260245ffd5b91607f1691611024565b9060405191825f825461105f81611015565b908184526020946001916001811690815f146110cb575060011461108d575b505050610325925003836102f7565b5f90815285812095935091905b8183106110b357505061032593508201015f808061107e565b8554888401850152948501948794509183019161109a565b9250505061032594925060ff191682840152151560051b8201015f808061107e565b97949161111b906101009895929b9a97949b6101209060018060a01b03168b528060208c01528a01906104d6565b9960408901526060880152608087015260a086015260c085015260e08401521515910152565b3461019e57602036600319011261019e576004355f52600460205260405f2060018060a01b038154166105786111796001840161104d565b926002810154906003810154600482015460058301549060068401549260ff600860078701549601541695604051998a998a6110ed565b3461019e575f36600319011261019e576006546040516001600160a01b039091168152602090f35b3461019e57604036600319011261019e57602060ff6112286111f8610188565b6112006101a2565b6001600160a01b039182165f9081526001865260408082209290931681526020919091522090565b54166040519015158152f35b3461019e5760a036600319011261019e5761124d610188565b6112556101a2565b6064356044356084356001600160401b03811161019e5761127a903690600401610342565b600854909390611292906001600160a01b03166107a5565b803b1561019e57604051632f924f2f60e11b815260048101849052602481018590526001600160a01b0387166044820152905f90829060649082905afa80156108425761136a575b506006546112f0906001600160a01b03166107a5565b604051632db7781960e11b81526001600160a01b038316600482015290606090829060249082905afa908115610842575f91611348575b50156113365761065d946120ef565b604051632d3e478360e21b8152600490fd5b611361915060603d6060116108ef576108de81836102f7565b9150505f611327565b80610836611377926102c9565b5f6112da565b3461019e57602036600319011261019e57611396610188565b61139e611cbf565b6001600160a01b039081169081156113f157600354826bffffffffffffffffffffffff60a01b821617600355167f8be0079c531659141344cd1fd0a4f28419497f9722a3daafe3b4186f6b6457e05f80a3005b604051631e4fbdf760e01b81525f6004820152602490fd5b3461019e57611417366105f7565b600854909291906001600160a01b03908116330361148c578216156114755761065d9261146160405192600184526020840152604083019160018352606084015260808301604052565b915f60405161146f816102dc565b52612106565b604051626a0d4560e21b81525f6004820152602490fd5b60405162461bcd60e51b815260206004820152601d60248201527f4f6e6c79204672616374696f6e4d616e616765722063616e206275726e0000006044820152606490fd5b3461019e575f36600319011261019e576007546040516001600160a01b039091168152602090f35b60405190611506826102dc565b5f8252565b805182101561151f5760209160051b010190565b634e487b7160e01b5f52603260045260245ffd5b6040513d5f823e3d90fd5b9081606091031261019e57805191604060208301519201516109ae81610dc1565b3d15611589573d9061157082610327565b9161157e60405193846102f7565b82523d5f602084013e565b606090565b919091805183518082036116295750508051906115c36115ad836106a4565b926115bb60405194856102f7565b8084526106a4565b60209190601f190136848401375f5b815181101561162157600581901b8281018401519087018401515f908152602081815260408083206001600160a01b03909416835292905220546001919061161a828761150b565b52016115d2565b509193505050565b604051635b05999160e01b815260048101919091526024810191909152604490fd5b9394929190611658611f72565b801561193a578115611928578215801561191f575b61190d57600654611686906001600160a01b03166107a5565b60408051632db7781960e11b8152336004820152909591606090829060249082905afa908115610842575f916118eb575b50156118da576007546116d2906001600160a01b03166107a5565b855163b2ee2f0160e01b81526004810183905297908690899060249082905afa8015610842575f985f916118a7575b505f8960070b1390811591611895575b50611884576117996001600160401b03600554996117366117318c611991565b600555565b1691611794611743610318565b3381528a6020820152868a8201528760608201528860808201524260a08201528460c08201528560e082015261177d610100820160019052565b61178f8c5f52600460205260405f2090565b611b23565b611bb5565b6008549095906117b1906001600160a01b03166107a5565b90813b1561019e57875163eba8ded960e01b8152600481018b905260248101879052604481019190915260648101969096525f908690608490829084905af19182156108425788967fd94216fb0f4ea08091c7866b255d6caeebaa8f88a60c6737eb524bdf2fcfe3709661184494611871575b506118386118306114f9565b878a33611ceb565b51948594339986611bde565b0390a39061032560017f9b779b17422d0df92223018b32b4d1fa46e071723d6817e2486d003becc55f0055565b8061083661187e926102c9565b5f611824565b855163579a480160e01b8152600490fd5b6001600160401b03915016155f611711565b90506118ca919850863d88116118d3575b6118c281836102f7565b81019061194c565b9790975f611701565b503d6118b8565b8451631e376b3360e01b8152600490fd5b611904915060603d6060116108ef576108de81836102f7565b9150505f6116b7565b6040516322c3201560e01b8152600490fd5b5081831161166d565b6040516307be9acb60e31b8152600490fd5b6040516305b62cdf60e11b8152600490fd5b919082604091031261019e5781518060070b810361019e576020909201516001600160401b038116810361019e5790565b634e487b7160e01b5f52601160045260245ffd5b5f19811461199f5760010190565b61197d565b601f81116119b0575050565b60025f527f405787fa12a823e0f2b7631cc41b3ba8828b3321ca811111fa75cd3aa3bb5ace906020601f840160051c83019310611a07575b601f0160051c01905b8181106119fc575050565b5f81556001016119f1565b90915081906119e8565b601f8211611a1e57505050565b5f5260205f20906020601f840160051c83019310611a56575b601f0160051c01905b818110611a4b575050565b5f8155600101611a40565b9091508190611a37565b91909182516001600160401b0381116102c457611a8781611a818454611015565b84611a11565b602080601f8311600114611abc57508190611ab89394955f926104155750508160011b915f199060031b1c19161790565b9055565b90601f19831695611ad0855f5260205f2090565b925f905b888210611b0b57505083600195969710611af3575b505050811b019055565b01515f1960f88460031b161c191690555f8080611ae9565b80600185968294968601518155019501930190611ad4565b815181546001600160a01b0319166001600160a01b0390911617815561032591600890611ba29061010090611b5f602082015160018701611a60565b60408101516002860155606081015160038601556080810151600486015560a0810151600586015560c0810151600686015560e081015160078601550151151590565b91019060ff801983541691151516179055565b9060078202918083046007149015171561199f57565b8181029291811591840414171561199f57565b919594939092611bf860809460a0855260a08501906104d6565b966020840152604083015260608201520152565b8115611c16570490565b634e487b7160e01b5f52601260045260245ffd5b15611c3157565b60405162461bcd60e51b815260206004820152601760248201527f5061796d656e74207472616e73666572206661696c65640000000000000000006044820152606490fd5b9190820391821161199f57565b15611c8a57565b60405162461bcd60e51b815260206004820152600d60248201526c1499599d5b990819985a5b1959609a1b6044820152606490fd5b6003546001600160a01b03163303611cd357565b60405163118cdaa760e01b8152336004820152602490fd5b92936001600160a01b0384169390929091908415611e0857611d2a60405192600184526020840152604083019160018352606084015260808301604052565b92909485518451908181036116295750505f5b8651811015611d84578060019160051b611d7c611d7487610e21848d6020918291010151958c010151945f525f60205260405f2090565b9182546122ad565b905501611d3d565b50929094602080916103259660018251145f14611de0575f838301515f80516020612590833981519152611dd08689015160405191829133958360209093929193604081019481520152565b0390a45b01519101519133612357565b5f6040515f80516020612570833981519152339180611e008a88836122ba565b0390a4611dd4565b604051632bfa23e760e11b81525f6004820152602490fd5b92919094611e2e843361223f565b6001600160a01b0386811695908615611e085785169586156114755783518551908181036116295750505f5b8451811015611f07578060051b6020808288010151918801015190611e8a89610e21835f525f60205260405f2090565b54828110611ed057611d748c610e2185948d611eba60019998611ec8970391610e21845f525f60205260405f2090565b555f525f60205260405f2090565b905501611e5a565b6040516303dee4c560e01b81526001600160a01b038b16600482015260248101919091526044810183905260648101829052608490fd5b506103259697929795919560018551145f14611f4b5760208581015187820151604080519283529282015233915f8051602061259083398151915291a45b33612538565b6040515f80516020612570833981519152339180611f6a8a8a836122ba565b0390a4611f45565b7f9b779b17422d0df92223018b32b4d1fa46e071723d6817e2486d003becc55f006002815414611fa25760029055565b604051633ee5aeb560e01b8152600490fd5b929391909460018060a01b0391828716928315611e0857851695861561147557611ffb60405192600184526020840152604083019160018352606084015260808301604052565b93909283518551908181036116295750505f5b8451811015612076578060051b602080828801015191880101519061203e89610e21835f525f60205260405f2090565b54828110611ed057611d748c610e2185948d611eba6001999861206e970391610e21845f525f60205260405f2090565b90550161200e565b5060209195949382916103259899949960018351145f146120c857838301518785015160408051928352602083019190915233915f805160206125908339815191529190a45b01519201519233612451565b6040515f805160206125708339815191523391806120e78b88836122ba565b0390a46120bc565b9061032594939291612101813361223f565b611fb4565b92919080518251908181036116295750505f5b81518110156121c657600581901b82810160209081015191850101516001600160a01b03871661214e575b5050600101612119565b61216387610e21845f525f60205260405f2090565b5481811061218f5787610e2160019594936121879303935f525f60205260405f2090565b55905f612144565b6040516303dee4c560e01b81526001600160a01b038916600482015260248101919091526044810182905260648101839052608490fd5b50905f92939160018151148414612213576020908101519181015160408051938452918301526001600160a01b039092169133915f8051602061259083398151915291819081015b0390a4565b6040516001600160a01b039093169233925f8051602061257083398151915292829161220e91836122ba565b6001600160a01b0381811692169081831415908161227f575b50612261575050565b604492506040519163711bec9160e11b835260048301526024820152fd5b5f8381526001602090815260408083206001600160a01b0390941683529290522060ff91505416155f612258565b9190820180921161199f57565b90916122d16109ae9360408452604084019061096a565b91602081840391015261096a565b9081602091031261019e57516109ae81610214565b909260a0926109ae9594600180861b031683525f60208401526040830152606082015281608082015201906104d6565b91926109ae95949160a094600180871b0380921685521660208401526040830152606082015281608082015201906104d6565b9293919093843b61236a575b5050505050565b60209161238d604051948593849363f23a6e6160e01b98898652600486016122f4565b03815f6001600160a01b0388165af15f9181612420575b506123e357826123b261155f565b80519190826123dc57604051632bfa23e760e11b81526001600160a01b0383166004820152602490fd5b6020915001fd5b6001600160e01b031916036123fd57505f80808080612363565b604051632bfa23e760e11b81526001600160a01b03919091166004820152602490fd5b61244391925060203d60201161244a575b61243b81836102f7565b8101906122df565b905f6123a4565b503d612431565b939290949194853b612466575b505050505050565b612489602093604051958694859463f23a6e6160e01b998a875260048701612324565b03815f6001600160a01b0388165af15f91816124c9575b506124ae57826123b261155f565b6001600160e01b031916036123fd57505f808080808061245e565b6124e391925060203d60201161244a5761243b81836102f7565b905f6124a0565b93906109ae959361251c9161252a9460018060a01b03809216885216602087015260a0604087015260a086019061096a565b90848203606086015261096a565b9160808184039101526104d6565b939290949194853b61254c57505050505050565b612489602093604051958694859463bc197c8160e01b998a8752600487016124ea56fe4a39dc06d4c0dbc64b70af90fd698a233a518aa5d07e595d983b8c0526c8f7fbc3d58168c5ae7397731d063d5bbf3d657854427343f4c083240f7aacaa2d0f62a2646970667358221220eb967c9fe31478c8a7320f32455fd72957dbc8c9e0104c94699285f1382bd44f64736f6c63430008180033","linkReferences":{}},"methodIdentifiers":{"assets(uint256)":"cf35bdd0","balanceOf(address,uint256)":"00fdd58e","balanceOfBatch(address[],uint256[])":"4e1273f4","burn(address,uint256,uint256)":"f5298aca","fractionManager()":"05c4b02e","getAssetMetadata(uint256)":"cf2acf84","isApprovedForAll(address,address)":"e985e9c5","mint(address,uint256,uint256)":"156e29f6","mintRWAToken(string,uint256,uint256,uint256,uint256,bytes,bytes32)":"50e45d15","nextTokenId()":"75794a3c","owner()":"8da5cb5b","purchaseFraction(uint256,uint256,bytes)":"80116cc4","pythOracle()":"f5d6ac90","renounceOwnership()":"715018a6","safeBatchTransferFrom(address,address,uint256[],uint256[],bytes)":"2eb2c2d6","safeTransferFrom(address,address,uint256,uint256,bytes)":"f242432a","setApprovalForAll(address,bool)":"a22cb465","setURI(string)":"02fe5305","supportsInterface(bytes4)":"01ffc9a7","transferOwnership(address)":"f2fde38b","uri(uint256)":"0e89341c","withdraw()":"3ccfd60b","zkVerifier()":"d6df096d"},"id":78}