{"abi":[{"type":"constructor","inputs":[{"name":"_pythContract","type":"address","internalType":"address"}],"stateMutability":"nonpayable"},{"type":"receive","stateMutability":"payable"},{"type":"function","name":"BTC_USD_FEED","inputs":[],"outputs":[{"name":"","type":"bytes32","internalType":"bytes32"}],"stateMutability":"view"},{"type":"function","name":"ETH_USD_FEED","inputs":[],"outputs":[{"name":"","type":"bytes32","internalType":"bytes32"}],"stateMutability":"view"},{"type":"function","name":"USDC_USD_FEED","inputs":[],"outputs":[{"name":"","type":"bytes32","internalType":"bytes32"}],"stateMutability":"view"},{"type":"function","name":"addPriceFeed","inputs":[{"name":"priceId","type":"bytes32","internalType":"bytes32"}],"outputs":[],"stateMutability":"nonpayable"},{"type":"function","name":"cachedPrices","inputs":[{"name":"","type":"bytes32","internalType":"bytes32"}],"outputs":[{"name":"price","type":"int64","internalType":"int64"},{"name":"timestamp","type":"uint64","internalType":"uint64"},{"name":"confidence","type":"uint64","internalType":"uint64"},{"name":"expo","type":"int32","internalType":"int32"},{"name":"isValid","type":"bool","internalType":"bool"}],"stateMutability":"view"},{"type":"function","name":"getCachedPriceUnsafe","inputs":[{"name":"priceId","type":"bytes32","internalType":"bytes32"}],"outputs":[{"name":"price","type":"int64","internalType":"int64"},{"name":"timestamp","type":"uint64","internalType":"uint64"}],"stateMutability":"view"},{"type":"function","name":"getLatestPrice","inputs":[{"name":"priceId","type":"bytes32","internalType":"bytes32"}],"outputs":[{"name":"price","type":"int64","internalType":"int64"},{"name":"timestamp","type":"uint64","internalType":"uint64"}],"stateMutability":"view"},{"type":"function","name":"getPriceAge","inputs":[{"name":"priceId","type":"bytes32","internalType":"bytes32"}],"outputs":[{"name":"","type":"uint256","internalType":"uint256"}],"stateMutability":"view"},{"type":"function","name":"getPriceAtMint","inputs":[{"name":"tokenId","type":"uint256","internalType":"uint256"}],"outputs":[{"name":"","type":"int64","internalType":"int64"}],"stateMutability":"view"},{"type":"function","name":"getPriceData","inputs":[{"name":"priceId","type":"bytes32","internalType":"bytes32"}],"outputs":[{"name":"","type":"tuple","internalType":"struct PythOracleReader.PriceData","components":[{"name":"price","type":"int64","internalType":"int64"},{"name":"timestamp","type":"uint64","internalType":"uint64"},{"name":"confidence","type":"uint64","internalType":"uint64"},{"name":"expo","type":"int32","internalType":"int32"},{"name":"isValid","type":"bool","internalType":"bool"}]}],"stateMutability":"view"},{"type":"function","name":"getUpdateFee","inputs":[{"name":"priceUpdate","type":"bytes[]","internalType":"bytes[]"}],"outputs":[{"name":"","type":"uint256","internalType":"uint256"}],"stateMutability":"view"},{"type":"function","name":"isPriceStale","inputs":[{"name":"priceId","type":"bytes32","internalType":"bytes32"}],"outputs":[{"name":"","type":"bool","internalType":"bool"}],"stateMutability":"view"},{"type":"function","name":"isSupportedFeed","inputs":[{"name":"priceId","type":"bytes32","internalType":"bytes32"}],"outputs":[{"name":"","type":"bool","internalType":"bool"}],"stateMutability":"view"},{"type":"function","name":"owner","inputs":[],"outputs":[{"name":"","type":"address","internalType":"address"}],"stateMutability":"view"},{"type":"function","name":"pyth","inputs":[],"outputs":[{"name":"","type":"address","internalType":"contract IPyth"}],"stateMutability":"view"},{"type":"function","name":"recordMintPrice","inputs":[{"name":"tokenId","type":"uint256","internalType":"uint256"},{"name":"priceId","type":"bytes32","internalType":"bytes32"}],"outputs":[],"stateMutability":"nonpayable"},{"type":"function","name":"removePriceFeed","inputs":[{"name":"priceId","type":"bytes32","internalType":"bytes32"}],"outputs":[],"stateMutability":"nonpayable"},{"type":"function","name":"renounceOwnership","inputs":[],"outputs":[],"stateMutability":"nonpayable"},{"type":"function","name":"setStalenessThreshold","inputs":[{"name":"newThreshold","type":"uint256","internalType":"uint256"}],"outputs":[],"stateMutability":"nonpayable"},{"type":"function","name":"stalenessThreshold","inputs":[],"outputs":[{"name":"","type":"uint256","internalType":"uint256"}],"stateMutability":"view"},{"type":"function","name":"supportedFeeds","inputs":[{"name":"","type":"bytes32","internalType":"bytes32"}],"outputs":[{"name":"","type":"bool","internalType":"bool"}],"stateMutability":"view"},{"type":"function","name":"tokenMintPriceIds","inputs":[{"name":"","type":"uint256","internalType":"uint256"}],"outputs":[{"name":"","type":"bytes32","internalType":"bytes32"}],"stateMutability":"view"},{"type":"function","name":"tokenMintPrices","inputs":[{"name":"","type":"uint256","internalType":"uint256"}],"outputs":[{"name":"","type":"int64","internalType":"int64"}],"stateMutability":"view"},{"type":"function","name":"transferOwnership","inputs":[{"name":"newOwner","type":"address","internalType":"address"}],"outputs":[],"stateMutability":"nonpayable"},{"type":"function","name":"updatePrice","inputs":[{"name":"priceId","type":"bytes32","internalType":"bytes32"},{"name":"priceUpdate","type":"bytes[]","internalType":"bytes[]"}],"outputs":[],"stateMutability":"payable"},{"type":"function","name":"withdrawETH","inputs":[],"outputs":[],"stateMutability":"nonpayable"},{"type":"event","name":"MintPriceRecorded","inputs":[{"name":"tokenId","type":"uint256","indexed":true,"internalType":"uint256"},{"name":"priceId","type":"bytes32","indexed":false,"internalType":"bytes32"},{"name":"price","type":"int64","indexed":false,"internalType":"int64"}],"anonymous":false},{"type":"event","name":"OwnershipTransferred","inputs":[{"name":"previousOwner","type":"address","indexed":true,"internalType":"address"},{"name":"newOwner","type":"address","indexed":true,"internalType":"address"}],"anonymous":false},{"type":"event","name":"PriceFeedAdded","inputs":[{"name":"priceId","type":"bytes32","indexed":true,"internalType":"bytes32"}],"anonymous":false},{"type":"event","name":"PriceFeedRemoved","inputs":[{"name":"priceId","type":"bytes32","indexed":true,"internalType":"bytes32"}],"anonymous":false},{"type":"event","name":"PriceUpdated","inputs":[{"name":"priceId","type":"bytes32","indexed":true,"internalType":"bytes32"},{"name":"price","type":"int64","indexed":false,"internalType":"int64"},{"name":"timestamp","type":"uint64","indexed":false,"internalType":"uint64"},{"name":"confidence","type":"uint64","indexed":false,"internalType":"uint64"}],"anonymous":false},{"type":"event","name":"StalenessThresholdUpdated","inputs":[{"name":"oldThreshold","type":"uint256","indexed":false,"internalType":"uint256"},{"name":"newThreshold","type":"uint256","indexed":false,"internalType":"uint256"}],"anonymous":false},{"type":"error","name":"InsufficientUpdateFee","inputs":[{"name":"required","type":"uint256","internalType":"uint256"},{"name":"provided","type":"uint256","internalType":"uint256"}]},{"type":"error","name":"InvalidPriceUpdate","inputs":[]},{"type":"error","name":"OwnableInvalidOwner","inputs":[{"name":"owner","type":"address","internalType":"address"}]},{"type":"error","name":"OwnableUnauthorizedAccount","inputs":[{"name":"account","type":"address","internalType":"address"}]},{"type":"error","name":"PriceDataNotAvailable","inputs":[{"name":"priceId","type":"bytes32","internalType":"bytes32"}]},{"type":"error","name":"PriceDataStale","inputs":[{"name":"priceId","type":"bytes32","internalType":"bytes32"},{"name":"age","type":"uint256","internalType":"uint256"}]},{"type":"error","name":"PriceFeedNotSupported","inputs":[{"name":"priceId","type":"bytes32","internalType":"bytes32"}]}],"bytecode":{"object":"0x60a0346101ed57601f6113a338819003918201601f191683019291906001600160401b038411838510176101f15781602092849260409687528339810103126101ed57516001600160a01b03808216918290036101ed5733156101d6575f543360018060a01b03198216175f558351913391167f8be0079c531659141344cd1fd0a4f28419497f9722a3daafe3b4186f6b6457e05f80a3610258600555811561019457506080527fff61491a931112ddf1bd8147cd1b641375f79f5825126d665480874634fd0ace805f526004602052815f209060ff19916001838254161790557fe62df6c8b4a85fe1a67db44dc12de5db330f7ac66b72dc658afedf0f4a415b4392835f52805f206001848254161790557feaa020c61cc479712813461ce153894a96a6c00b21ed0cfc2798d1f9a9e9c94a92835f526001825f209182541617905551927f868dae45dc06253b09999aeb1523180da150c42ae7a584ff0b14c6613642e2b791825f80a2815f80a25f80a261119d908161020682396080518181816101f00152818161046501526108b90152f35b62461bcd60e51b815260206004820152601460248201527f496e76616c6964205079746820616464726573730000000000000000000000006044820152606490fd5b8251631e4fbdf760e01b81525f6004820152602490fd5b5f80fd5b634e487b7160e01b5f52604160045260245ffdfe608080604052600436101561001c575b50361561001a575f80fd5b005b5f905f3560e01c9081630190924714610ebe575080633b1fdb9314610e8f57806340fa09bc14610e6257806343656f1114610e2857806343fa621114610d66578063447004a014610d3c5780634a9d131c14610c4e5780635774cb96146108665780636c2fd472146107cd578063715018a6146107745780637e8bf08e14610739578063899553a7146107125780638da5cb5b146106eb57806394d8572a146106b05780639fd6ac7014610617578063a84f6ebb146105f9578063b2ee2f0114610513578063bad2961c146104e6578063d47eed451461040e578063dffc0aa6146103e5578063e086e5ec14610370578063edf02f751461030a578063f2fde38b14610277578063f44a1b351461021f578063f98d06f0146101da5763fb01e7f20361000f57346101d75760203660031901126101d75760043561015e61113c565b801561019e5760407f2cfed7ac4be4a0009ef1af32ea2de149e0122938cb9aa4b3f7df3be6da1055e991600554908060055582519182526020820152a180f35b60405162461bcd60e51b8152602060048201526011602482015270125b9d985b1a59081d1a1c995cda1bdb19607a1b6044820152606490fd5b80fd5b50346101d757806003193601126101d7576040517f00000000000000000000000000000000000000000000000000000000000000006001600160a01b03168152602090f35b50346101d75760203660031901126101d75760043561023c61113c565b808252600460205260408220805460ff191690557f0a216b769c52442ef5c8d765614bdde4b5257f3510ed38c82f78dd7a800c64f98280a280f35b50346101d75760203660031901126101d7576004356001600160a01b0381811691829003610306576102a761113c565b81156102ed575f54826bffffffffffffffffffffffff60a01b8216175f55167f8be0079c531659141344cd1fd0a4f28419497f9722a3daafe3b4186f6b6457e05f80a380f35b604051631e4fbdf760e01b815260048101849052602490fd5b8280fd5b50346101d75760203660031901126101d757604060a09160043581526001602052205460ff6001600160401b0391604051928160070b8452808260401c1660208501528160801c1660408401528060c01c60030b606084015260e01c1615156080820152f35b50346101d757806003193601126101d75761038961113c565b8080808060018060a01b0381541647905af16103a3611017565b50156103ac5780f35b60405162461bcd60e51b815260206004820152601160248201527015da5d1a191c985dd85b0819985a5b1959607a1b6044820152606490fd5b50346101d75760203660031901126101d75760206104046004356110c6565b6040519015158152f35b50346101d757602090816003193601126101d7576004356001600160401b0381116104e25782610445610461923690600401610ee9565b60405163d47eed4560e01b815293849283929060048401610f55565b03817f00000000000000000000000000000000000000000000000000000000000000006001600160a01b03165afa9182156104d657916104a5575b50604051908152f35b90508181813d83116104cf575b6104bc8183610f34565b810103126104cb57515f61049c565b5f80fd5b503d6104b2565b604051903d90823e3d90fd5b5080fd5b50346101d75760203660031901126101d7576040602091600435815260028352205460070b604051908152f35b50346101d75760203660031901126101d757604060043591828152600160205220906040519161054283610f19565b54918260070b81526001600160401b039160ff6020830194848160401c168652848160801c1660408501528060c01c60030b606085015260e01c1615801560808401526105e1576105968385511642610ff6565b60055481116105c35750505191516040805160079490940b845291166001600160401b0316602083015290f35b604492506040519163bee6f9cb60e01b835260048301526024820152fd5b60249060405190630456b18f60e41b82526004820152fd5b50346101d757806003193601126101d7576020600554604051908152f35b50346101d75760203660031901126101d757604060043591828152600160205220906040519161064683610f19565b54918260070b81526001600160401b039160ff6020830194848160401c168652848160801c1660408501528060c01c60030b606085015260e01c1615801560808401526105e157505191516040805160079490940b845291166001600160401b0316602083015290f35b50346101d757806003193601126101d75760206040517fff61491a931112ddf1bd8147cd1b641375f79f5825126d665480874634fd0ace8152f35b50346101d757806003193601126101d757546040516001600160a01b039091168152602090f35b50346101d75760203660031901126101d7576020610731600435611055565b604051908152f35b50346101d757806003193601126101d75760206040517fe62df6c8b4a85fe1a67db44dc12de5db330f7ac66b72dc658afedf0f4a415b438152f35b50346101d757806003193601126101d75761078d61113c565b5f80546001600160a01b0319811682556001600160a01b03167f8be0079c531659141344cd1fd0a4f28419497f9722a3daafe3b4186f6b6457e08280a380f35b50346101d75760203660031901126101d7576004356107ea61113c565b801561082e57808252600460205260408220805460ff191660011790557f868dae45dc06253b09999aeb1523180da150c42ae7a584ff0b14c6613642e2b78280a280f35b60405162461bcd60e51b815260206004820152601060248201526f125b9d985b1a59081c1c9a58d948125160821b6044820152606490fd5b5060403660031901126104cb576024356001600160401b0381116104cb57610892903690600401610ee9565b6004355f52600460205260ff60405f20541615610c355760405163d47eed4560e01b8152917f00000000000000000000000000000000000000000000000000000000000000006001600160a01b03169190602084806108f5858560048401610f55565b0381865afa938415610bd7575f94610c01575b50833410610be257823b156104cb57604051631df3cbc560e31b8152915f9183918291610939919060048401610f55565b038186865af18015610bd757610bb6575b5060249160808492604051948580926396834ad360e01b825260043560048301525afa928315610bab578293610af9575b5082516001600160401b036060850151166001600160401b03602086015116604086015160030b604051936109af85610f19565b60070b845260208401928352604084019182526060840190815260808401916001835260043587526001602052604087209451936001600160401b036fffffffffffffffff00000000000000008754925160401b16928160801b905160801b16935160c01b9460ff60e01b9051151560e01b1695169062ffffff60e81b161717179063ffffffff60c01b1617179055803411610a9f575b5050805160070b906001600160401b036020816060840151169201511690604051928352602083015260408201527f17aaffc7fc182d086c3f1335dbeb5f45a158979890f7111223797dd3929183e3606060043592a280f35b8180610aac819334610ff6565b335af1610ab7611017565b5015610ac457815f610a46565b60405162461bcd60e51b815260206004820152600d60248201526c1499599d5b990819985a5b1959609a1b6044820152606490fd5b915091506080813d608011610ba3575b81610b1660809383610f34565b810103126103065760405160808101918183106001600160401b03841117610b8f57849260405280518060070b8103610b8b57825260208101516001600160401b0381168103610b8b5760208301526040810151908160030b8203610b8b57606091604084015201516060820152915f61097b565b8380fd5b634e487b7160e01b5f52604160045260245ffd5b3d9150610b09565b6040513d84823e3d90fd5b9192506001600160401b038211610b8f576040919091525f9190602461094a565b6040513d5f823e3d90fd5b60405163dd519f0360e01b815260048101859052346024820152604490fd5b9093506020813d602011610c2d575b81610c1d60209383610f34565b810103126104cb5751925f610908565b3d9150610c10565b6024604051631fb7749d60e21b81526004356004820152fd5b346104cb5760403660031901126104cb57600435602435805f52600160205260405f2060405190610c7e82610f19565b548060070b825260ff6001600160401b0391828160401c166020850152828160801c1660408501528060c01c60030b606085015260e01c161580156080840152610d235791817f939eee12d5ab844a5d6aa779ab0400caacfc720ab7a85edb1488f98941b56e91936040935190865f526002602052845f20916001600160401b03198354169116179055600360205281835f20555160070b82519182526020820152a2005b604051630456b18f60e41b815260048101849052602490fd5b346104cb5760203660031901126104cb576004355f526003602052602060405f2054604051908152f35b346104cb5760203660031901126104cb575f6080604051610d8681610f19565b82815282602082015282604082015282606082015201526004355f52600160205260a060405f2060405190610dba82610f19565b548060070b918281526001600160401b0360208201818460401c168152816040840191818660801c16835260ff608060608701968860c01c60030b8852019660e01c161515865260405196875251166020860152511660408401525160030b60608301525115156080820152f35b346104cb575f3660031901126104cb5760206040517feaa020c61cc479712813461ce153894a96a6c00b21ed0cfc2798d1f9a9e9c94a8152f35b346104cb5760203660031901126104cb576004355f526002602052602060405f205460070b604051908152f35b346104cb5760203660031901126104cb576004355f526004602052602060ff60405f2054166040519015158152f35b346104cb5760203660031901126104cb576020906004355f526004825260ff60405f20541615158152f35b9181601f840112156104cb578235916001600160401b0383116104cb576020808501948460051b0101116104cb57565b60a081019081106001600160401b03821117610b8f57604052565b90601f801991011681019081106001600160401b03821117610b8f57604052565b9160208181850182865252604084019360408360051b82010194845f925b858410610f84575050505050505090565b90919293949596603f198282030184528735601e19843603018112156104cb5783018681019190356001600160401b0381116104cb5780360383136104cb5787828280600196849695859652848401375f828201840152601f01601f1916010199019796959190910193019190610f73565b9190820391821161100357565b634e487b7160e01b5f52601160045260245ffd5b3d15611050573d906001600160401b038211610b8f5760405191611045601f8201601f191660200184610f34565b82523d5f602084013e565b606090565b5f52600160205260405f206040519061106d82610f19565b54908160070b815260ff6001600160401b0392838160401c16938460208501528160801c1660408401528060c01c60030b606084015260e01c161590608082159101526110c1576110be9042610ff6565b90565b505f90565b5f52600160205260405f20604051906110de82610f19565b54908160070b815260ff6001600160401b0392838160401c16938460208501528160801c1660408401528060c01c60030b606084015260e01c161590608082159101526111365761112f9042610ff6565b6005541090565b50600190565b5f546001600160a01b0316330361114f57565b60405163118cdaa760e01b8152336004820152602490fdfea2646970667358221220a54997be262852b9fa7f3cfa008a5f27ee5a882a2b79ac5585ca2cf0489ffcb464736f6c63430008180033","linkReferences":{}},"methodIdentifiers":{"BTC_USD_FEED()":"7e8bf08e","ETH_USD_FEED()":"94d8572a","USDC_USD_FEED()":"43656f11","addPriceFeed(bytes32)":"6c2fd472","cachedPrices(bytes32)":"edf02f75","getCachedPriceUnsafe(bytes32)":"9fd6ac70","getLatestPrice(bytes32)":"b2ee2f01","getPriceAge(bytes32)":"899553a7","getPriceAtMint(uint256)":"bad2961c","getPriceData(bytes32)":"43fa6211","getUpdateFee(bytes[])":"d47eed45","isPriceStale(bytes32)":"dffc0aa6","isSupportedFeed(bytes32)":"3b1fdb93","owner()":"8da5cb5b","pyth()":"f98d06f0","recordMintPrice(uint256,bytes32)":"4a9d131c","removePriceFeed(bytes32)":"f44a1b35","renounceOwnership()":"715018a6","setStalenessThreshold(uint256)":"fb01e7f2","stalenessThreshold()":"a84f6ebb","supportedFeeds(bytes32)":"01909247","tokenMintPriceIds(uint256)":"447004a0","tokenMintPrices(uint256)":"40fa09bc","transferOwnership(address)":"f2fde38b","updatePrice(bytes32,bytes[])":"5774cb96","withdrawETH()":"e086e5ec"},"id":77}