{"abi":[{"type":"constructor","inputs":[],"stateMutability":"nonpayable"},{"type":"function","name":"batchRegisterCommitments","inputs":[{"name":"users","type":"address[]","internalType":"address[]"},{"name":"commitments","type":"bytes32[]","internalType":"bytes32[]"}],"outputs":[],"stateMutability":"nonpayable"},{"type":"function","name":"getCommitment","inputs":[{"name":"user","type":"address","internalType":"address"}],"outputs":[{"name":"","type":"tuple","internalType":"struct ZKVerifier.Commitment","components":[{"name":"commitmentHash","type":"bytes32","internalType":"bytes32"},{"name":"timestamp","type":"uint256","internalType":"uint256"},{"name":"isActive","type":"bool","internalType":"bool"}]}],"stateMutability":"view"},{"type":"function","name":"hasActiveCommitment","inputs":[{"name":"user","type":"address","internalType":"address"}],"outputs":[{"name":"","type":"bool","internalType":"bool"}],"stateMutability":"view"},{"type":"function","name":"owner","inputs":[],"outputs":[{"name":"","type":"address","internalType":"address"}],"stateMutability":"view"},{"type":"function","name":"rangeCommitments","inputs":[{"name":"","type":"uint256","internalType":"uint256"},{"name":"","type":"address","internalType":"address"}],"outputs":[{"name":"","type":"bytes32","internalType":"bytes32"}],"stateMutability":"view"},{"type":"function","name":"registerCommitment","inputs":[{"name":"commitment","type":"bytes32","internalType":"bytes32"}],"outputs":[],"stateMutability":"nonpayable"},{"type":"function","name":"renounceOwnership","inputs":[],"outputs":[],"stateMutability":"nonpayable"},{"type":"function","name":"revokeCommitment","inputs":[{"name":"user","type":"address","internalType":"address"}],"outputs":[],"stateMutability":"nonpayable"},{"type":"function","name":"setRangeCommitment","inputs":[{"name":"tokenId","type":"uint256","internalType":"uint256"},{"name":"holder","type":"address","internalType":"address"},{"name":"commitment","type":"bytes32","internalType":"bytes32"}],"outputs":[],"stateMutability":"nonpayable"},{"type":"function","name":"tokenHolderVerified","inputs":[{"name":"","type":"uint256","internalType":"uint256"},{"name":"","type":"address","internalType":"address"}],"outputs":[{"name":"","type":"bool","internalType":"bool"}],"stateMutability":"view"},{"type":"function","name":"transferOwnership","inputs":[{"name":"newOwner","type":"address","internalType":"address"}],"outputs":[],"stateMutability":"nonpayable"},{"type":"function","name":"updateHolderVerification","inputs":[{"name":"tokenId","type":"uint256","internalType":"uint256"},{"name":"holder","type":"address","internalType":"address"},{"name":"isVerified","type":"bool","internalType":"bool"}],"outputs":[],"stateMutability":"nonpayable"},{"type":"function","name":"userCommitments","inputs":[{"name":"","type":"address","internalType":"address"}],"outputs":[{"name":"commitmentHash","type":"bytes32","internalType":"bytes32"},{"name":"timestamp","type":"uint256","internalType":"uint256"},{"name":"isActive","type":"bool","internalType":"bool"}],"stateMutability":"view"},{"type":"function","name":"verifyEligibility","inputs":[{"name":"user","type":"address","internalType":"address"},{"name":"commitment","type":"bytes32","internalType":"bytes32"},{"name":"proof","type":"bytes","internalType":"bytes"}],"outputs":[{"name":"","type":"bool","internalType":"bool"}],"stateMutability":"view"},{"type":"function","name":"verifyRangeProof","inputs":[{"name":"tokenId","type":"uint256","internalType":"uint256"},{"name":"holder","type":"address","internalType":"address"},{"name":"minRange","type":"uint256","internalType":"uint256"},{"name":"maxRange","type":"uint256","internalType":"uint256"},{"name":"proof","type":"bytes","internalType":"bytes"}],"outputs":[{"name":"","type":"bool","internalType":"bool"}],"stateMutability":"view"},{"type":"event","name":"CommitmentRegistered","inputs":[{"name":"user","type":"address","indexed":true,"internalType":"address"},{"name":"commitment","type":"bytes32","indexed":false,"internalType":"bytes32"},{"name":"timestamp","type":"uint256","indexed":false,"internalType":"uint256"}],"anonymous":false},{"type":"event","name":"CommitmentRevoked","inputs":[{"name":"user","type":"address","indexed":true,"internalType":"address"}],"anonymous":false},{"type":"event","name":"EligibilityVerified","inputs":[{"name":"user","type":"address","indexed":true,"internalType":"address"},{"name":"isEligible","type":"bool","indexed":false,"internalType":"bool"}],"anonymous":false},{"type":"event","name":"OwnershipTransferred","inputs":[{"name":"previousOwner","type":"address","indexed":true,"internalType":"address"},{"name":"newOwner","type":"address","indexed":true,"internalType":"address"}],"anonymous":false},{"type":"event","name":"RangeCommitmentSet","inputs":[{"name":"tokenId","type":"uint256","indexed":true,"internalType":"uint256"},{"name":"holder","type":"address","indexed":true,"internalType":"address"},{"name":"commitment","type":"bytes32","indexed":false,"internalType":"bytes32"}],"anonymous":false},{"type":"event","name":"RangeProofVerified","inputs":[{"name":"tokenId","type":"uint256","indexed":true,"internalType":"uint256"},{"name":"holder","type":"address","indexed":true,"internalType":"address"},{"name":"isValid","type":"bool","indexed":false,"internalType":"bool"}],"anonymous":false},{"type":"error","name":"CommitmentAlreadyExists","inputs":[]},{"type":"error","name":"CommitmentMismatch","inputs":[]},{"type":"error","name":"InvalidProof","inputs":[]},{"type":"error","name":"InvalidRange","inputs":[]},{"type":"error","name":"NoActiveCommitment","inputs":[]},{"type":"error","name":"OwnableInvalidOwner","inputs":[{"name":"owner","type":"address","internalType":"address"}]},{"type":"error","name":"OwnableUnauthorizedAccount","inputs":[{"name":"account","type":"address","internalType":"address"}]},{"type":"error","name":"ZeroCommitment","inputs":[]}],"bytecode":{"object":"0x60808060405234610078573315610063575f8054336001600160a01b03198216811783556040519290916001600160a01b0316907f8be0079c531659141344cd1fd0a4f28419497f9722a3daafe3b4186f6b6457e09080a3610c62908161007d8239f35b631e4fbdf760e01b81525f6004820152602490fd5b5f80fdfe60806040526004361015610011575f80fd5b5f3560e01c80630f45dcfd146101045780632907c1f7146100ff5780635b6ef032146100fa5780635c50aa22146100f5578063715018a6146100f0578063718d8113146100eb5780638da5cb5b146100e6578063a40bbbd2146100e1578063cb16644d146100dc578063cce613d6146100d7578063d9e314d8146100d2578063f2fde38b146100cd578063f62b6f0e146100c8578063f8c0d823146100c35763fa1026dd146100be575f80fd5b610920565b6108ce565b610838565b6107aa565b6106eb565b61067d565b610587565b61053a565b610513565b6104bf565b610468565b610425565b6103ce565b610377565b61013e565b9181601f8401121561013a5782359167ffffffffffffffff831161013a576020808501948460051b01011161013a57565b5f80fd5b3461013a5760408060031936011261013a5767ffffffffffffffff60043581811161013a57610171903690600401610109565b92909160243590811161013a5761018c903690600401610109565b9092610196610c01565b6101a18286146109c0565b5f5b8581106101ac57005b806101ba60019285886109fe565b35156102a5576101fc60026101f46101db6101d6858c896109fe565b610a22565b6001600160a01b03165f90815260016020526040902090565b015460ff1690565b6102a55761023c61020e8286896109fe565b35610217610312565b9081524260208201526001878201526102376101db6101d6858c896109fe565b610a2f565b61024a6101d68289866109fe565b7ff94c35d8303d50dad386cbf59defef96279412f23e6ef7668e6987a3e13a974161029b61027984888b6109fe565b88519035815242602082015260a086901b869003909316929081906040820190565b0390a25b016101a3565b61029f565b6001600160a01b0381160361013a57565b634e487b7160e01b5f52604160045260245ffd5b6060810190811067ffffffffffffffff8211176102eb57604052565b6102bb565b90601f8019910116810190811067ffffffffffffffff8211176102eb57604052565b6040519061031f826102cf565b565b81601f8201121561013a5780359067ffffffffffffffff82116102eb5760405192610356601f8401601f1916602001856102f0565b8284526020838301011161013a57815f926020809301838601378301015290565b3461013a57606036600319011261013a57600435610394816102aa565b60443567ffffffffffffffff811161013a576020916103ba6103c4923690600401610321565b9060243590610a5c565b6040519015158152f35b3461013a57602036600319011261013a576004356103eb816102aa565b60018060a01b03165f526001602052606060405f2080549060ff600260018301549201541690604051928352602083015215156040820152f35b3461013a57602036600319011261013a57600435610442816102aa565b60018060a01b03165f526001602052602060ff600260405f200154166040519015158152f35b3461013a575f36600319011261013a57610480610c01565b5f80546001600160a01b0319811682556001600160a01b03167f8be0079c531659141344cd1fd0a4f28419497f9722a3daafe3b4186f6b6457e08280a3005b3461013a5760a036600319011261013a576024356104dc816102aa565b60843567ffffffffffffffff811161013a576020916105026103c4923690600401610321565b906064359060443590600435610ac6565b3461013a575f36600319011261013a575f546040516001600160a01b039091168152602090f35b3461013a57604036600319011261013a57602061057e60243561055c816102aa565b6004355f526003835260405f209060018060a01b03165f5260205260405f2090565b54604051908152f35b3461013a57606036600319011261013a576024356004356105a7826102aa565b6001600160a01b038281169260443591338514908115610670575b501561063a578180610624610635936105fd7f885d4d1b37ab3ae93fea06e6f8a3d174580b49726ce3aff481b2c4c4252a9f44961515610bc3565b61060f875f52600360205260405f2090565b9060018060a01b03165f5260205260405f2090565b556040519081529081906020820190565b0390a3005b60405162461bcd60e51b815260206004820152600e60248201526d139bdd08185d5d1a1bdc9a5e995960921b6044820152606490fd5b90505f541633145f6105c2565b3461013a57606036600319011261013a5760243561069a816102aa565b604435801515810361013a576106d86106e9926106b5610c01565b6004355f52600260205260405f209060018060a01b03165f5260205260405f2090565b9060ff801983541691151516179055565b005b3461013a57602036600319011261013a57600435801561079857335f90815260016020526040902061071f906002906101f4565b6107865761075161072e610312565b82815242602082015260016040820152335f908152600160205260409020610a2f565b6040805191825242602083015233917ff94c35d8303d50dad386cbf59defef96279412f23e6ef7668e6987a3e13a97419190a2005b60405163145718a760e01b8152600490fd5b6040516351bda03d60e01b8152600490fd5b3461013a57602036600319011261013a576004356107c7816102aa565b6107cf610c01565b6001600160a01b03908116908115610820575f54826bffffffffffffffffffffffff60a01b8216175f55167f8be0079c531659141344cd1fd0a4f28419497f9722a3daafe3b4186f6b6457e05f80a3005b604051631e4fbdf760e01b81525f6004820152602490fd5b3461013a57602036600319011261013a57600435610855816102aa565b61085d610c01565b6001600160a01b03165f8181526001602052604090206002015460ff16156108bc57805f526001602052600260405f200160ff1981541690557f963eaa1310a95b879edd6190c81702bcbbfa814698155ebb751b2d4e85cd2e695f80a2005b604051638fda9af160e01b8152600490fd5b3461013a57604036600319011261013a57602060ff6109146024356108f2816102aa565b6004355f526002845260405f209060018060a01b03165f5260205260405f2090565b54166040519015158152f35b3461013a57602036600319011261013a576109bc600435610940816102aa565b6040905f828051610950816102cf565b828152826020820152015260018060a01b03165f526001602052805f209060ff600282519361097e856102cf565b805485526001810154602086015201541615158183015251918291829190916040806060830194805184526020810151602085015201511515910152565b0390f35b156109c757565b60405162461bcd60e51b815260206004820152600f60248201526e098cadccee8d040dad2e6dac2e8c6d608b1b6044820152606490fd5b9190811015610a0e5760051b0190565b634e487b7160e01b5f52603260045260245ffd5b35610a2c816102aa565b90565b6002604061031f9380518455602081015160018501550151151591019060ff801983541691151516179055565b91909160018060a01b03165f52600160205260405f20604051610a7e816102cf565b60ff600283549384845260018101546020850152015416159060408215910152610ab9578203610ac0578051908115610ab957602001201490565b5050505f90565b50505f90565b9392909192818411610bb057610af8610af460026101f48660018060a01b03165f52600160205260405f2090565b1590565b610bb05780518015610bb957602011610bb05760200151928310908115610ba6575b50610ab95761060f610b8092604051610b6e81610b606020820194878a87916054939183526bffffffffffffffffffffffff199060601b16602083015260348201520190565b03601f1981018352826102f0565b519020935f52600360205260405f2090565b54908115918215610b9b575b5050610b9757600190565b5f90565b141590505f80610b8c565b905082115f610b1a565b50505050505f90565b5050505050505f90565b15610bca57565b60405162461bcd60e51b815260206004820152600f60248201526e16995c9bc818dbdb5b5a5d1b595b9d608a1b6044820152606490fd5b5f546001600160a01b03163303610c1457565b60405163118cdaa760e01b8152336004820152602490fdfea26469706673582212203c3b87e8c9b72c390ce8b2fd3c2efe19e8bfc442df987f528756c7ac3a58708364736f6c63430008180033","linkReferences":{}},"methodIdentifiers":{"batchRegisterCommitments(address[],bytes32[])":"0f45dcfd","getCommitment(address)":"fa1026dd","hasActiveCommitment(address)":"5c50aa22","owner()":"8da5cb5b","rangeCommitments(uint256,address)":"a40bbbd2","registerCommitment(bytes32)":"d9e314d8","renounceOwnership()":"715018a6","revokeCommitment(address)":"f62b6f0e","setRangeCommitment(uint256,address,bytes32)":"cb16644d","tokenHolderVerified(uint256,address)":"f8c0d823","transferOwnership(address)":"f2fde38b","updateHolderVerification(uint256,address,bool)":"cce613d6","userCommitments(address)":"5b6ef032","verifyEligibility(address,bytes32,bytes)":"2907c1f7","verifyRangeProof(uint256,address,uint256,uint256,bytes)":"718d8113"},"id":80}