{"abi":[{"type":"constructor","inputs":[{"name":"_rwaFactory","type":"address","internalType":"address"}],"stateMutability":"nonpayable"},{"type":"function","name":"WHOLE_TOKEN_OFFSET","inputs":[],"outputs":[{"name":"","type":"uint256","internalType":"uint256"}],"stateMutability":"view"},{"type":"function","name":"deactivateFractionSpec","inputs":[{"name":"tokenId","type":"uint256","internalType":"uint256"}],"outputs":[],"stateMutability":"nonpayable"},{"type":"function","name":"fractionSpecs","inputs":[{"name":"","type":"uint256","internalType":"uint256"}],"outputs":[{"name":"totalSupply","type":"uint256","internalType":"uint256"},{"name":"minUnitSize","type":"uint256","internalType":"uint256"},{"name":"lockupPeriod","type":"uint256","internalType":"uint256"},{"name":"lockupEnd","type":"uint256","internalType":"uint256"},{"name":"isActive","type":"bool","internalType":"bool"}],"stateMutability":"view"},{"type":"function","name":"getFractionSpec","inputs":[{"name":"tokenId","type":"uint256","internalType":"uint256"}],"outputs":[{"name":"","type":"tuple","internalType":"struct FractionManager.FractionSpec","components":[{"name":"totalSupply","type":"uint256","internalType":"uint256"},{"name":"minUnitSize","type":"uint256","internalType":"uint256"},{"name":"lockupPeriod","type":"uint256","internalType":"uint256"},{"name":"lockupEnd","type":"uint256","internalType":"uint256"},{"name":"isActive","type":"bool","internalType":"bool"}]}],"stateMutability":"view"},{"type":"function","name":"getRemainingLockup","inputs":[{"name":"tokenId","type":"uint256","internalType":"uint256"}],"outputs":[{"name":"","type":"uint256","internalType":"uint256"}],"stateMutability":"view"},{"type":"function","name":"isLockupEnded","inputs":[{"name":"tokenId","type":"uint256","internalType":"uint256"}],"outputs":[{"name":"","type":"bool","internalType":"bool"}],"stateMutability":"view"},{"type":"function","name":"isTransferAllowed","inputs":[{"name":"tokenId","type":"uint256","internalType":"uint256"},{"name":"amount","type":"uint256","internalType":"uint256"},{"name":"from","type":"address","internalType":"address"}],"outputs":[{"name":"","type":"bool","internalType":"bool"}],"stateMutability":"view"},{"type":"function","name":"owner","inputs":[],"outputs":[{"name":"","type":"address","internalType":"address"}],"stateMutability":"view"},{"type":"function","name":"recombineFractions","inputs":[{"name":"tokenId","type":"uint256","internalType":"uint256"},{"name":"amount","type":"uint256","internalType":"uint256"}],"outputs":[],"stateMutability":"nonpayable"},{"type":"function","name":"renounceOwnership","inputs":[],"outputs":[],"stateMutability":"nonpayable"},{"type":"function","name":"rwaFactory","inputs":[],"outputs":[{"name":"","type":"address","internalType":"contract IRWATokenFactory"}],"stateMutability":"view"},{"type":"function","name":"setFractionSpec","inputs":[{"name":"tokenId","type":"uint256","internalType":"uint256"},{"name":"totalSupply","type":"uint256","internalType":"uint256"},{"name":"minUnitSize","type":"uint256","internalType":"uint256"},{"name":"lockupPeriod","type":"uint256","internalType":"uint256"}],"outputs":[],"stateMutability":"nonpayable"},{"type":"function","name":"setRWAFactory","inputs":[{"name":"newFactory","type":"address","internalType":"address"}],"outputs":[],"stateMutability":"nonpayable"},{"type":"function","name":"transferOwnership","inputs":[{"name":"newOwner","type":"address","internalType":"address"}],"outputs":[],"stateMutability":"nonpayable"},{"type":"function","name":"updateLockupPeriod","inputs":[{"name":"tokenId","type":"uint256","internalType":"uint256"},{"name":"newLockupPeriod","type":"uint256","internalType":"uint256"}],"outputs":[],"stateMutability":"nonpayable"},{"type":"function","name":"validateTransfer","inputs":[{"name":"tokenId","type":"uint256","internalType":"uint256"},{"name":"amount","type":"uint256","internalType":"uint256"},{"name":"from","type":"address","internalType":"address"}],"outputs":[],"stateMutability":"view"},{"type":"event","name":"FractionSpecSet","inputs":[{"name":"tokenId","type":"uint256","indexed":true,"internalType":"uint256"},{"name":"totalSupply","type":"uint256","indexed":false,"internalType":"uint256"},{"name":"minUnitSize","type":"uint256","indexed":false,"internalType":"uint256"},{"name":"lockupPeriod","type":"uint256","indexed":false,"internalType":"uint256"},{"name":"lockupEnd","type":"uint256","indexed":false,"internalType":"uint256"}],"anonymous":false},{"type":"event","name":"FractionsRecombined","inputs":[{"name":"tokenId","type":"uint256","indexed":true,"internalType":"uint256"},{"name":"holder","type":"address","indexed":true,"internalType":"address"},{"name":"fractionalAmount","type":"uint256","indexed":false,"internalType":"uint256"},{"name":"wholeTokenId","type":"uint256","indexed":false,"internalType":"uint256"}],"anonymous":false},{"type":"event","name":"OwnershipTransferred","inputs":[{"name":"previousOwner","type":"address","indexed":true,"internalType":"address"},{"name":"newOwner","type":"address","indexed":true,"internalType":"address"}],"anonymous":false},{"type":"event","name":"RWAFactoryUpdated","inputs":[{"name":"oldFactory","type":"address","indexed":true,"internalType":"address"},{"name":"newFactory","type":"address","indexed":true,"internalType":"address"}],"anonymous":false},{"type":"error","name":"FractionSpecNotSet","inputs":[{"name":"tokenId","type":"uint256","internalType":"uint256"}]},{"type":"error","name":"InsufficientFractionsForRecombination","inputs":[{"name":"amount","type":"uint256","internalType":"uint256"},{"name":"required","type":"uint256","internalType":"uint256"}]},{"type":"error","name":"InvalidMinUnitSize","inputs":[]},{"type":"error","name":"InvalidTotalSupply","inputs":[]},{"type":"error","name":"OwnableInvalidOwner","inputs":[{"name":"owner","type":"address","internalType":"address"}]},{"type":"error","name":"OwnableUnauthorizedAccount","inputs":[{"name":"account","type":"address","internalType":"address"}]},{"type":"error","name":"RWAFactoryNotSet","inputs":[]},{"type":"error","name":"TransferBelowMinimum","inputs":[{"name":"amount","type":"uint256","internalType":"uint256"},{"name":"required","type":"uint256","internalType":"uint256"}]},{"type":"error","name":"TransferDuringLockup","inputs":[{"name":"currentTime","type":"uint256","internalType":"uint256"},{"name":"lockupEnd","type":"uint256","internalType":"uint256"}]}],"bytecode":{"object":"0x60803461010e57601f610cdf38819003918201601f19168301916001600160401b038311848410176101125780849260209460405283398101031261010e57516001600160a01b038082169182900361010e5733156100f6575f549060018060a01b03199133838216175f55604051913391167f8be0079c531659141344cd1fd0a4f28419497f9722a3daafe3b4186f6b6457e05f80a382156100b457506002541617600255604051610bb890816101278239f35b62461bcd60e51b815260206004820152601760248201527f496e76616c696420666163746f727920616464726573730000000000000000006044820152606490fd5b604051631e4fbdf760e01b81525f6004820152602490fd5b5f80fd5b634e487b7160e01b5f52604160045260245ffdfe60406080815260049081361015610014575f80fd5b5f915f3560e01c80632b27d8591461086c57806342d66d64146107b857806343613da1146107925780635237423e146106d75780635f249e5e146106bd578063648df109146104e6578063715018a61461048d5780638117871c146104365780638da5cb5b1461040e578063bb74ba4b146103e5578063c13e7f0d1461033b578063d8e841dd1461031d578063dec160d9146102fa578063df7cc667146102d4578063eba8ded91461015e5763f2fde38b146100ce575f80fd5b3461015a57602036600319011261015a576100e76108b4565b906100f0610b31565b6001600160a01b039182169283156101445750505f54826bffffffffffffffffffffffff60a01b8216175f55167f8be0079c531659141344cd1fd0a4f28419497f9722a3daafe3b4186f6b6457e05f80a380f35b51631e4fbdf760e01b8152908101849052602490fd5b8280fd5b509190346102d05760803660031901126102d0578154833591604435916024359160643591336001600160a01b03918216149081156102c2575b50156102915782156102825783158015610279575b61026a5795818596977f55afcaa830cea453d8b23ea1778c5d5c5d4fe1192d012c6619b44df425191bc4966101e461026495610b5c565b9382516101f0816108f4565b8781528b602082018a8152858301908782528660608501938a8552608086019760018952815260016020522093518455516001840155516002830155516003820155019051151560ff8019835416911617905551948594859094939260609260808301968352602083015260408201520152565b0390a280f35b51633d78de5360e21b81528690fd5b508284116101ad565b516334bbd58560e01b81528690fd5b5162461bcd60e51b8152602081880152600c60248201526b155b985d5d1a1bdc9a5e995960a21b6044820152606490fd5b90506002541633145f610198565b5080fd5b5050346102d0576020906102f16102ea366108ca565b5090610ac2565b90519015158152f35b50913461031a57602036600319011261031a57506102f160209235610a67565b80fd5b5050346102d057816003193601126102d05760209051620f42408152f35b50903461015a57602036600319011261015a57808360a09460808351610360816108f4565b828152826020820152828582015282606082015201528335815260016020522081519161038c836108f4565b815493848452600183015460208501908152608060ff6002860154938588019485526003870154966060890197885201541695019415158552825195865251602086015251908401525160608301525115156080820152f35b5050346102d057816003193601126102d05760025490516001600160a01b039091168152602090f35b5050346102d057816003193601126102d057905490516001600160a01b039091168152602090f35b50903461015a57602036600319011261015a578060a0938335815260016020522080549260018201549260ff6002840154926003850154940154169381519586526020860152840152606083015215156080820152f35b833461031a578060031936011261031a576104a6610b31565b5f80546001600160a01b0319811682556001600160a01b03167f8be0079c531659141344cd1fd0a4f28419497f9722a3daafe3b4186f6b6457e08280a380f35b509034610677576104f63661089e565b600254909391926001600160a01b03929091831680156106ae57845f526001602052825f2060ff8385519261052a846108f4565b8054845260018101546020850152600281015487850152600381015460608501520154161580156080830152610697575180870361067b5750803b15610677575f80916064855180948193637a94c56560e11b835233888401528a60248401528b60448401525af1801561066d5761065a575b50620f4240840192838511610647579086916002541690813b1561015a5782916064839286519485938492630ab714fb60e11b84523390840152896024840152600160448401525af1801561063d57610625575b50507fd4ef02422f135ef67d9871f0c5f5c2de49313e9eb308353d938e0d3e31f0ed3291815194855260208501523393a380f35b61062e90610924565b61063957845f6105f1565b8480fd5b83513d84823e3d90fd5b634e487b7160e01b875260118252602487fd5b610665919650610924565b5f945f61059d565b83513d5f823e3d90fd5b5f80fd5b905085604493519263c8e8b58960e01b84528301526024820152fd5b8351635d97646f60e11b8152808401879052602490fd5b509051630711db1760e21b8152fd5b34610677576106d56106ce366108ca565b50906109bf565b005b5034610677576020366003190112610677576106f16108b4565b906106fa610b31565b6001600160a01b0391821692831561074f575050600254826bffffffffffffffffffffffff60a01b821617600255167fc8e8cd58fc418c592534bcbc4f65ea268a810af45c7d159476abf49469cd50325f80a3005b906020606492519162461bcd60e51b8352820152601760248201527f496e76616c696420666163746f727920616464726573730000000000000000006044820152fd5b509034610677576020366003190112610677576107b160209235610938565b9051908152f35b5034610677576107c73661089e565b9290916107d2610b31565b825f526001602052815f209060ff8183015416156108555750610850847f55afcaa830cea453d8b23ea1778c5d5c5d4fe1192d012c6619b44df425191bc49495600284015561082081610b5c565b90816003850155600184549401549451948594859094939260609260808301968352602083015260408201520152565b0390a2005b8251635d97646f60e11b8152908101849052602490fd5b50903461067757602036600319011261067757610887610b31565b81355f90815260016020522001805460ff19169055005b6040906003190112610677576004359060243590565b600435906001600160a01b038216820361067757565b60609060031901126106775760043590602435906044356001600160a01b03811681036106775790565b60a0810190811067ffffffffffffffff82111761091057604052565b634e487b7160e01b5f52604160045260245ffd5b67ffffffffffffffff811161091057604052565b5f52600160205260405f206080604051610951816108f4565b82548152600183015460208201526002830154604082015260ff6004600385015494856060850152015416159081159283910152906109b5575b6109b05742810390811161099c5790565b634e487b7160e01b5f52601160045260245ffd5b505f90565b508042101561098b565b5f52600160205260405f20906040516109d7816108f4565b825481526001830154908160208201526002840154604082015260ff600460038601549560608401968752015416159060808215910152610a6257808210610a4457505051804210610a265750565b6044906040519063e4a1b9bf60e01b82524260048301526024820152fd5b60449250604051916327a6ca4560e01b835260048301526024820152fd5b505050565b5f52600160205260405f20604051610a7e816108f4565b81548152600182015460208201526002820154604082015260ff6004600384015493846060850152015416159060808215910152610abc5742101590565b50600190565b5f52600160205260405f209060405190610adb826108f4565b825482526001830154918260208201526002840154604082015260ff6004600386015495866060850152015416159060808215910152610b2957106109b0574210610b2557600190565b5f90565b505050600190565b5f546001600160a01b03163303610b4457565b60405163118cdaa760e01b8152336004820152602490fd5b8015610b7d57620151808082029182040361099c57420180421161099c5790565b50429056fea2646970667358221220b997c39c868ffa7a66a628fa5bbb1adb6cab0d6ea8d55f9aee4484b4c0f9640f64736f6c63430008180033","linkReferences":{}},"methodIdentifiers":{"WHOLE_TOKEN_OFFSET()":"d8e841dd","deactivateFractionSpec(uint256)":"2b27d859","fractionSpecs(uint256)":"8117871c","getFractionSpec(uint256)":"c13e7f0d","getRemainingLockup(uint256)":"43613da1","isLockupEnded(uint256)":"dec160d9","isTransferAllowed(uint256,uint256,address)":"df7cc667","owner()":"8da5cb5b","recombineFractions(uint256,uint256)":"648df109","renounceOwnership()":"715018a6","rwaFactory()":"bb74ba4b","setFractionSpec(uint256,uint256,uint256,uint256)":"eba8ded9","setRWAFactory(address)":"5237423e","transferOwnership(address)":"f2fde38b","updateLockupPeriod(uint256,uint256)":"42d66d64","validateTransfer(uint256,uint256,address)":"5f249e5e"},"id":76}