{
  "abi": [
    {
      "type": "constructor",
      "inputs": [
        {
          "name": "_pythOracle",
          "type": "address",
          "internalType": "address payable"
        },
        {
          "name": "_rwaFactory",
          "type": "address",
          "internalType": "address"
        }
      ],
      "stateMutability": "nonpayable"
    },
    {
      "type": "function",
      "name": "baseAPY",
      "inputs": [],
      "outputs": [
        {
          "name": "",
          "type": "uint256",
          "internalType": "uint256"
        }
      ],
      "stateMutability": "view"
    },
    {
      "type": "function",
      "name": "calculateYield",
      "inputs": [
        {
          "name": "tokenId",
          "type": "uint256",
          "internalType": "uint256"
        },
        {
          "name": "principalAmount",
          "type": "uint256",
          "internalType": "uint256"
        },
        {
          "name": "durationDays",
          "type": "uint256",
          "internalType": "uint256"
        }
      ],
      "outputs": [
        {
          "name": "",
          "type": "uint256",
          "internalType": "uint256"
        }
      ],
      "stateMutability": "nonpayable"
    },
    {
      "type": "function",
      "name": "owner",
      "inputs": [],
      "outputs": [
        {
          "name": "",
          "type": "address",
          "internalType": "address"
        }
      ],
      "stateMutability": "view"
    },
    {
      "type": "function",
      "name": "previewTokenValue",
      "inputs": [
        {
          "name": "tokenId",
          "type": "uint256",
          "internalType": "uint256"
        }
      ],
      "outputs": [
        {
          "name": "",
          "type": "uint256",
          "internalType": "uint256"
        }
      ],
      "stateMutability": "view"
    },
    {
      "type": "function",
      "name": "pythOracle",
      "inputs": [],
      "outputs": [
        {
          "name": "",
          "type": "address",
          "internalType": "contract PythOracleReader"
        }
      ],
      "stateMutability": "view"
    },
    {
      "type": "function",
      "name": "renounceOwnership",
      "inputs": [],
      "outputs": [],
      "stateMutability": "nonpayable"
    },
    {
      "type": "function",
      "name": "rwaFactory",
      "inputs": [],
      "outputs": [
        {
          "name": "",
          "type": "address",
          "internalType": "contract IRWATokenFactoryForYield"
        }
      ],
      "stateMutability": "view"
    },
    {
      "type": "function",
      "name": "setBaseAPY",
      "inputs": [
        {
          "name": "newAPY",
          "type": "uint256",
          "internalType": "uint256"
        }
      ],
      "outputs": [],
      "stateMutability": "nonpayable"
    },
    {
      "type": "function",
      "name": "transferOwnership",
      "inputs": [
        {
          "name": "newOwner",
          "type": "address",
          "internalType": "address"
        }
      ],
      "outputs": [],
      "stateMutability": "nonpayable"
    },
    {
      "type": "event",
      "name": "BaseAPYUpdated",
      "inputs": [
        {
          "name": "oldAPY",
          "type": "uint256",
          "indexed": false,
          "internalType": "uint256"
        },
        {
          "name": "newAPY",
          "type": "uint256",
          "indexed": false,
          "internalType": "uint256"
        }
      ],
      "anonymous": false
    },
    {
      "type": "event",
      "name": "OwnershipTransferred",
      "inputs": [
        {
          "name": "previousOwner",
          "type": "address",
          "indexed": true,
          "internalType": "address"
        },
        {
          "name": "newOwner",
          "type": "address",
          "indexed": true,
          "internalType": "address"
        }
      ],
      "anonymous": false
    },
    {
      "type": "event",
      "name": "YieldCalculated",
      "inputs": [
        {
          "name": "tokenId",
          "type": "uint256",
          "indexed": true,
          "internalType": "uint256"
        },
        {
          "name": "yield",
          "type": "uint256",
          "indexed": false,
          "internalType": "uint256"
        },
        {
          "name": "timestamp",
          "type": "uint256",
          "indexed": false,
          "internalType": "uint256"
        }
      ],
      "anonymous": false
    },
    {
      "type": "error",
      "name": "AssetNotFound",
      "inputs": []
    },
    {
      "type": "error",
      "name": "InvalidAPY",
      "inputs": []
    },
    {
      "type": "error",
      "name": "OwnableInvalidOwner",
      "inputs": [
        {
          "name": "owner",
          "type": "address",
          "internalType": "address"
        }
      ]
    },
    {
      "type": "error",
      "name": "OwnableUnauthorizedAccount",
      "inputs": [
        {
          "name": "account",
          "type": "address",
          "internalType": "address"
        }
      ]
    },
    {
      "type": "error",
      "name": "PriceNotAvailable",
      "inputs": []
    },
    {
      "type": "error",
      "name": "ZeroDuration",
      "inputs": []
    },
    {
      "type": "error",
      "name": "ZeroPrincipal",
      "inputs": []
    }
  ],
  "bytecode": {
    "object": "0x6080346100e157601f6107df38819003918201601f19168301916001600160401b038311848410176100e55780849260409485528339810103126100e15780516001600160a01b0391828216918290036100e15760200151908282168092036100e15733156100c9575f549060018060a01b03199133838216175f55604051943391167f8be0079c531659141344cd1fd0a4f28419497f9722a3daafe3b4186f6b6457e05f80a381600154161760015560025416176002556101f46003556106e590816100fa8239f35b604051631e4fbdf760e01b81525f6004820152602490fd5b5f80fd5b634e487b7160e01b5f52604160045260245ffdfe6080604090808252600480361015610015575f80fd5b5f3560e01c918263214405a914610541575081632319b256146103f7578163588078a11461024e5781635ee6efd0146101e3578163715018a61461018c5781638da5cb5b14610165578163bb74ba4b1461013d578163f2fde38b146100ae575063f5d6ac9014610083575f80fd5b346100aa575f3660031901126100aa5760015490516001600160a01b039091168152602090f35b5f80fd5b82346100aa5760203660031901126100aa576001600160a01b038235818116939192908490036100aa576100e0610684565b83156101275750505f54826bffffffffffffffffffffffff60a01b8216175f55167f8be0079c531659141344cd1fd0a4f28419497f9722a3daafe3b4186f6b6457e05f80a3005b905f6024925191631e4fbdf760e01b8352820152fd5b82346100aa575f3660031901126100aa5760025490516001600160a01b039091168152602090f35b82346100aa575f3660031901126100aa575f5490516001600160a01b039091168152602090f35b346100aa575f3660031901126100aa576101a4610684565b5f80546001600160a01b0319811682556001600160a01b03167f8be0079c531659141344cd1fd0a4f28419497f9722a3daafe3b4186f6b6457e08280a3005b82346100aa5760203660031901126100aa5781356101ff610684565b6127108111610240577f92846c67351932b78c86ef4a06fd61781497e7fcb97e3b1200ecfcbd7a30d6109250600354908060035582519182526020820152a1005b5051631b0848d160e21b8152fd5b82346100aa5760203660031901126100aa576002548151630cf35bdd60e41b815283358482015291906001600160a01b03905f908490602490829085165afa9081156103ed575f935f915f935f965f935f926103b2575b508216159081156103a9575b506103995784906001541691602482518094819363b2ee2f0160e01b83528b8301525afa90811561038f575f91610342575b505f8160070b13156103325761030d929167ffffffffffffffff610307921661065d565b9361065d565b90811561031f57602093505191048152f35b601284634e487b7160e01b5f525260245ffd5b835163579a480160e01b81528690fd5b90508381813d8311610388575b610359818361055b565b810103126100aa578051908160070b82036100aa576020015167ffffffffffffffff8116036100aa57866102e3565b503d61034f565b84513d5f823e3d90fd5b845163470cbf4760e01b81528790fd5b905015886102b1565b9350505094508492506103d791503d805f833e6103cf818361055b565b810190610591565b919a9498959790965093949093925090506102a5565b82513d5f823e3d90fd5b82346100aa5760603660031901126100aa576024359082356044358315610531578015610521576002548351630cf35bdd60e41b8152868101849052906001600160a01b03905f908390602490829085165afa918215610517575f905f936104f0575b5016159081156104e7575b506104d7576104836237b1d09161047e6003548761065d565b61065d565b0483018093116104c457602093507f699e6d40fdfd2a9b389b4829c32556c6ffbb29a37b8c0b628b77012e2d2d2c458280518581524287820152a251908152f35b601184634e487b7160e01b5f525260245ffd5b825163470cbf4760e01b81528590fd5b90501586610465565b90506105079192503d805f833e6103cf818361055b565b989796505050505050508861045a565b85513d5f823e3d90fd5b825163346ab43760e11b81528590fd5b8251630b3eb09f60e21b81528590fd5b346100aa575f3660031901126100aa576020906003548152f35b90601f8019910116810190811067ffffffffffffffff82111761057d57604052565b634e487b7160e01b5f52604160045260245ffd5b9091610120828403126100aa5781516001600160a01b03811681036100aa579260208084015167ffffffffffffffff908181116100aa57850183601f820112156100aa57805191821161057d57604051936105f5601f8401601f191685018661055b565b8285528383830101116100aa575f5b82811061064a575050905f91830101529160408101519160608201519160808101519160a08201519160c08101519161010060e083015192015180151581036100aa5790565b8181018401518582018501528301610604565b8181029291811591840414171561067057565b634e487b7160e01b5f52601160045260245ffd5b5f546001600160a01b0316330361069757565b60405163118cdaa760e01b8152336004820152602490fdfea26469706673582212209a16f01440cf2ee15266b5505bcc2c6f8ba25256c7273164a220d6696b18b48564736f6c63430008180033",
    "linkReferences": {}
  },
  "methodIdentifiers": {
    "baseAPY()": "214405a9",
    "calculateYield(uint256,uint256,uint256)": "2319b256",
    "owner()": "8da5cb5b",
    "previewTokenValue(uint256)": "588078a1",
    "pythOracle()": "f5d6ac90",
    "renounceOwnership()": "715018a6",
    "rwaFactory()": "bb74ba4b",
    "setBaseAPY(uint256)": "5ee6efd0",
    "transferOwnership(address)": "f2fde38b"
  },
  "id": 79
}