{"abi":[{"type":"constructor","inputs":[{"name":"_validTimePeriod","type":"uint256","internalType":"uint256"},{"name":"_singleUpdateFeeInWei","type":"uint256","internalType":"uint256"}],"stateMutability":"nonpayable"},{"type":"function","name":"createPriceFeedUpdateData","inputs":[{"name":"id","type":"bytes32","internalType":"bytes32"},{"name":"price","type":"int64","internalType":"int64"},{"name":"conf","type":"uint64","internalType":"uint64"},{"name":"expo","type":"int32","internalType":"int32"},{"name":"emaPrice","type":"int64","internalType":"int64"},{"name":"emaConf","type":"uint64","internalType":"uint64"},{"name":"publishTime","type":"uint64","internalType":"uint64"}],"outputs":[{"name":"priceFeedData","type":"bytes","internalType":"bytes"}],"stateMutability":"pure"},{"type":"function","name":"getEmaPrice","inputs":[{"name":"id","type":"bytes32","internalType":"bytes32"}],"outputs":[{"name":"price","type":"tuple","internalType":"struct PythStructs.Price","components":[{"name":"price","type":"int64","internalType":"int64"},{"name":"conf","type":"uint64","internalType":"uint64"},{"name":"expo","type":"int32","internalType":"int32"},{"name":"publishTime","type":"uint256","internalType":"uint256"}]}],"stateMutability":"view"},{"type":"function","name":"getEmaPriceNoOlderThan","inputs":[{"name":"id","type":"bytes32","internalType":"bytes32"},{"name":"age","type":"uint256","internalType":"uint256"}],"outputs":[{"name":"price","type":"tuple","internalType":"struct PythStructs.Price","components":[{"name":"price","type":"int64","internalType":"int64"},{"name":"conf","type":"uint64","internalType":"uint64"},{"name":"expo","type":"int32","internalType":"int32"},{"name":"publishTime","type":"uint256","internalType":"uint256"}]}],"stateMutability":"view"},{"type":"function","name":"getEmaPriceUnsafe","inputs":[{"name":"id","type":"bytes32","internalType":"bytes32"}],"outputs":[{"name":"price","type":"tuple","internalType":"struct PythStructs.Price","components":[{"name":"price","type":"int64","internalType":"int64"},{"name":"conf","type":"uint64","internalType":"uint64"},{"name":"expo","type":"int32","internalType":"int32"},{"name":"publishTime","type":"uint256","internalType":"uint256"}]}],"stateMutability":"view"},{"type":"function","name":"getPrice","inputs":[{"name":"id","type":"bytes32","internalType":"bytes32"}],"outputs":[{"name":"price","type":"tuple","internalType":"struct PythStructs.Price","components":[{"name":"price","type":"int64","internalType":"int64"},{"name":"conf","type":"uint64","internalType":"uint64"},{"name":"expo","type":"int32","internalType":"int32"},{"name":"publishTime","type":"uint256","internalType":"uint256"}]}],"stateMutability":"view"},{"type":"function","name":"getPriceNoOlderThan","inputs":[{"name":"id","type":"bytes32","internalType":"bytes32"},{"name":"age","type":"uint256","internalType":"uint256"}],"outputs":[{"name":"price","type":"tuple","internalType":"struct PythStructs.Price","components":[{"name":"price","type":"int64","internalType":"int64"},{"name":"conf","type":"uint64","internalType":"uint64"},{"name":"expo","type":"int32","internalType":"int32"},{"name":"publishTime","type":"uint256","internalType":"uint256"}]}],"stateMutability":"view"},{"type":"function","name":"getPriceUnsafe","inputs":[{"name":"id","type":"bytes32","internalType":"bytes32"}],"outputs":[{"name":"price","type":"tuple","internalType":"struct PythStructs.Price","components":[{"name":"price","type":"int64","internalType":"int64"},{"name":"conf","type":"uint64","internalType":"uint64"},{"name":"expo","type":"int32","internalType":"int32"},{"name":"publishTime","type":"uint256","internalType":"uint256"}]}],"stateMutability":"view"},{"type":"function","name":"getUpdateFee","inputs":[{"name":"updateData","type":"bytes[]","internalType":"bytes[]"}],"outputs":[{"name":"feeAmount","type":"uint256","internalType":"uint256"}],"stateMutability":"view"},{"type":"function","name":"getValidTimePeriod","inputs":[],"outputs":[{"name":"","type":"uint256","internalType":"uint256"}],"stateMutability":"view"},{"type":"function","name":"parsePriceFeedUpdates","inputs":[{"name":"updateData","type":"bytes[]","internalType":"bytes[]"},{"name":"priceIds","type":"bytes32[]","internalType":"bytes32[]"},{"name":"minPublishTime","type":"uint64","internalType":"uint64"},{"name":"maxPublishTime","type":"uint64","internalType":"uint64"}],"outputs":[{"name":"feeds","type":"tuple[]","internalType":"struct PythStructs.PriceFeed[]","components":[{"name":"id","type":"bytes32","internalType":"bytes32"},{"name":"price","type":"tuple","internalType":"struct PythStructs.Price","components":[{"name":"price","type":"int64","internalType":"int64"},{"name":"conf","type":"uint64","internalType":"uint64"},{"name":"expo","type":"int32","internalType":"int32"},{"name":"publishTime","type":"uint256","internalType":"uint256"}]},{"name":"emaPrice","type":"tuple","internalType":"struct PythStructs.Price","components":[{"name":"price","type":"int64","internalType":"int64"},{"name":"conf","type":"uint64","internalType":"uint64"},{"name":"expo","type":"int32","internalType":"int32"},{"name":"publishTime","type":"uint256","internalType":"uint256"}]}]}],"stateMutability":"payable"},{"type":"function","name":"priceFeedExists","inputs":[{"name":"id","type":"bytes32","internalType":"bytes32"}],"outputs":[{"name":"","type":"bool","internalType":"bool"}],"stateMutability":"view"},{"type":"function","name":"queryPriceFeed","inputs":[{"name":"id","type":"bytes32","internalType":"bytes32"}],"outputs":[{"name":"priceFeed","type":"tuple","internalType":"struct PythStructs.PriceFeed","components":[{"name":"id","type":"bytes32","internalType":"bytes32"},{"name":"price","type":"tuple","internalType":"struct PythStructs.Price","components":[{"name":"price","type":"int64","internalType":"int64"},{"name":"conf","type":"uint64","internalType":"uint64"},{"name":"expo","type":"int32","internalType":"int32"},{"name":"publishTime","type":"uint256","internalType":"uint256"}]},{"name":"emaPrice","type":"tuple","internalType":"struct PythStructs.Price","components":[{"name":"price","type":"int64","internalType":"int64"},{"name":"conf","type":"uint64","internalType":"uint64"},{"name":"expo","type":"int32","internalType":"int32"},{"name":"publishTime","type":"uint256","internalType":"uint256"}]}]}],"stateMutability":"view"},{"type":"function","name":"updatePriceFeeds","inputs":[{"name":"updateData","type":"bytes[]","internalType":"bytes[]"}],"outputs":[],"stateMutability":"payable"},{"type":"function","name":"updatePriceFeedsIfNecessary","inputs":[{"name":"updateData","type":"bytes[]","internalType":"bytes[]"},{"name":"priceIds","type":"bytes32[]","internalType":"bytes32[]"},{"name":"publishTimes","type":"uint64[]","internalType":"uint64[]"}],"outputs":[],"stateMutability":"payable"},{"type":"event","name":"BatchPriceFeedUpdate","inputs":[{"name":"chainId","type":"uint16","indexed":false,"internalType":"uint16"},{"name":"sequenceNumber","type":"uint64","indexed":false,"internalType":"uint64"}],"anonymous":false},{"type":"event","name":"PriceFeedUpdate","inputs":[{"name":"id","type":"bytes32","indexed":true,"internalType":"bytes32"},{"name":"publishTime","type":"uint64","indexed":false,"internalType":"uint64"},{"name":"price","type":"int64","indexed":false,"internalType":"int64"},{"name":"conf","type":"uint64","indexed":false,"internalType":"uint64"}],"anonymous":false},{"type":"error","name":"InsufficientFee","inputs":[]},{"type":"error","name":"InvalidArgument","inputs":[]},{"type":"error","name":"NoFreshUpdate","inputs":[]},{"type":"error","name":"PriceFeedNotFound","inputs":[]},{"type":"error","name":"PriceFeedNotFoundWithinRange","inputs":[]},{"type":"error","name":"StalePrice","inputs":[]}],"bytecode":{"object":"0x60803461005957601f610d5538819003918201601f19168301916001600160401b0383118484101761005d5780849260409485528339810103126100595760208151910151600255600355604051610ce390816100728239f35b5f80fd5b634e487b7160e01b5f52604160045260245ffdfe60806040526004361015610011575f80fd5b5f3560e01c806331d98b3f1461064d5780634716e9c514610413578063711a2e28146103fa5780639474f45b146103d157806396834ad31461039957806396db632714610268578063a4ae35e01461024f578063b5dcc91114610218578063b5ec0261146101e5578063b9256d281461017c578063caaf43f11461014e578063d47eed451461010a578063e18910a3146100ed5763ef9e5e28146100b3575f80fd5b60203660031901126100e9576004356001600160401b0381116100e9576100e16100e79136906004016106a9565b90610ac7565b005b5f80fd5b346100e9575f3660031901126100e9576020600354604051908152f35b346100e95760203660031901126100e9576004356001600160401b0381116100e95761014661013f60209236906004016106a9565b9050610a9d565b604051908152f35b346100e95760203660031901126100e95761012061016d600435610a3a565b61017a60405180926106ef565bf35b60603660031901126100e9576001600160401b036004358181116100e9576101a89036906004016106a9565b906024358381116100e9576101c19036906004016106a9565b906044359485116100e9576101dd6100e79536906004016106a9565b949093610941565b346100e95760203660031901126100e957602061020e6004355f525f60205260405f2054151590565b6040519015158152f35b346100e95760203660031901126100e957610231610766565b5060806102426003546004356108eb565b61017a6040518092610677565b346100e95760806102426102623661071a565b90610933565b346100e95760e03660031901126100e9576024358060070b8091036100e95761028f6106d9565b90606435908160030b8092036100e957608435918260070b8093036100e95760a4356001600160401b03938482168092036100e95760c435928584168094036100e95760609284846102df6107a1565b97600435895260209a8b8a01918251528a8c83510191169052846040825101525101526040860192835152878351015260408251015251015261032860405191848301906106ef565b610120815261014081019182118183101761038557816040528282528051806101608301525f5b81811061037057505f8282016101800152601f01601f191681010360400190f35b8085918401610180838201519101520161034f565b634e487b7160e01b5f52604160045260245ffd5b346100e95760203660031901126100e9576103b2610766565b50608060206103c2600435610a3a565b015161017a6040518092610677565b346100e95760203660031901126100e9576103ea610766565b50608060406103c2600435610a3a565b346100e957608061024261040d3661071a565b906108eb565b60803660031901126100e9576004356001600160401b0381116100e95761043e9036906004016106a9565b6024356001600160401b0381116100e95761045d9036906004016106a9565b6104656106d9565b606435946001600160401b0386168096036100e95761048385610a9d565b341061063c576104928361078a565b6040519690601f1990601f01811688016001600160401b03811189821017610385576040528488526104c38561078a565b015f5b8181106106255750505f5b84811061052957876040518091602082016020835281518091526020604084019201905f5b818110610504575050500390f35b9193509160206101208261051b60019488516106ef565b0194019101918493926104f6565b5f5b87811061056b575b5061053e81896108c7565b515161054b8287896108db565b3503610559576001016104d1565b6040516345805f5d60e01b8152600490fd5b61058761057f828a879c999a9b959c6107ce565b810190610884565b6105918a886108c7565b5261059c89876108c7565b506105a789876108c7565b51516105b48a898b6108db565b35146105c9575b60010197909695949761052b565b606060206105dc8b899c959b9a996108c7565b510151015183816001600160401b0388161115918261061a575b50505f03610533576001905f610611848c999a9b959c6108c7565b515290506105bb565b11159050838b6105f6565b6020906106306107a1565b82828c010152016104c6565b60405162976f7560e21b8152600490fd5b346100e95760203660031901126100e957610666610766565b506080610242600354600435610933565b60608091805160070b84526001600160401b036020820151166020850152604081015160030b60408501520151910152565b9181601f840112156100e9578235916001600160401b0383116100e9576020808501948460051b0101116100e957565b604435906001600160401b03821682036100e957565b9060a06040610718938051845261070e60208201516020860190610677565b0151910190610677565b565b60409060031901126100e9576004359060243590565b608081019081106001600160401b0382111761038557604052565b606081019081106001600160401b0382111761038557604052565b6040519061077382610730565b5f6060838281528260208201528260408201520152565b6001600160401b0381116103855760051b60200190565b604051906107ae8261074b565b815f81526107ba610766565b602082015260406107c9610766565b910152565b919081101561080f5760051b81013590601e19813603018212156100e95701908135916001600160401b0383116100e95760200182360381136100e9579190565b634e487b7160e01b5f52603260045260245ffd5b91908260809103126100e95760405161083b81610730565b809280358060070b81036100e957825260208101356001600160401b03811681036100e957602083015260408101358060030b81036100e9576040830152606090810135910152565b90610120828203126100e9576108bf9060a0604051936108a38561074b565b803585526108b48360208301610823565b602086015201610823565b604082015290565b805182101561080f5760209160051b010190565b919081101561080f5760051b0190565b6109086040916108f9610766565b50610902610766565b50610a3a565b015190610919606083015142610c8f565b116109215790565b604051630cd5fa0760e11b8152600490fd5b6109086020916108f9610766565b929390938581036109e9575f5b81811061096757604051636f162bfd60e11b8152600490fd5b6109866109758284876108db565b355f525f60205260405f2054151590565b1580156109a8575b61099a5760010161094e565b505050506107189250610ac7565b50606060206109c16109bb8486896108db565b35610a3a565b015101516109d08289866108db565b35906001600160401b0382168092036100e9571061098e565b60405163a9cb9e0d60e01b8152600490fd5b90604051610a0881610730565b60606001829480548060070b85526001600160401b038160401c16602086015260801c60030b60408501520154910152565b610a426107a1565b50805f525f60205260405f205415610a8b575f525f60205260405f206108bf600360405192610a708461074b565b80548452610a80600182016109fb565b6020850152016109fb565b604051630295d7cd60e31b8152600490fd5b600254818102918183041490151715610ab35790565b634e487b7160e01b5f52601160045260245ffd5b90610ad181610a9d565b341061063c575f5b818110610b3c575050506001546001600160401b0360018183167f943f0e8a16c19895fb87cbeb1a349ed86d7f31923089dd36c1a1ed5e300f267b60408051848152836020820152a101818111610ab35716906001600160401b03191617600155565b80610b4d61057f60019385876107ce565b80515f5260205f8152600260405f20015491818101926060845101518110610b7a575b5050505001610ad9565b6001600160401b03827fd06a6b7f4918494b3719217d1802786c1f5112a6c1d88fe2cfec00b4584f6aec94606094515f5260405f20918051978884555192600487855193818e850154978781015198604082015160801b63ffffffff60801b16908b8916906bffffffffffffffffffffffff60a01b161767ffffffffffffffff60401b8b60401b161717600187015501516002850155604060038501910151908151815467ffffffffffffffff60401b8985015160401b16908b604086015160801b63ffffffff60801b169316906bffffffffffffffffffffffff60a01b1617171790550151910155836040519516855260070b90840152166040820152a25f808080610b70565b91908203918211610ab357565b81811115610ca45790610ca191610c82565b90565b610ca191610c8256fea2646970667358221220ee47eec6d19c3d14b77fbcf70de4a9831775c6fb34542724ce3b1cab8a417b1464736f6c63430008180033","linkReferences":{}},"methodIdentifiers":{"createPriceFeedUpdateData(bytes32,int64,uint64,int32,int64,uint64,uint64)":"96db6327","getEmaPrice(bytes32)":"b5dcc911","getEmaPriceNoOlderThan(bytes32,uint256)":"711a2e28","getEmaPriceUnsafe(bytes32)":"9474f45b","getPrice(bytes32)":"31d98b3f","getPriceNoOlderThan(bytes32,uint256)":"a4ae35e0","getPriceUnsafe(bytes32)":"96834ad3","getUpdateFee(bytes[])":"d47eed45","getValidTimePeriod()":"e18910a3","parsePriceFeedUpdates(bytes[],bytes32[],uint64,uint64)":"4716e9c5","priceFeedExists(bytes32)":"b5ec0261","queryPriceFeed(bytes32)":"caaf43f1","updatePriceFeeds(bytes[])":"ef9e5e28","updatePriceFeedsIfNecessary(bytes[],bytes32[],uint64[])":"b9256d28"},"id":72}