{
  "abi": [
    {
      "type": "constructor",
      "inputs": [
        {
          "name": "_eligibilityVerifier",
          "type": "address",
          "internalType": "address"
        },
        {
          "name": "_rangeProofVerifier",
          "type": "address",
          "internalType": "address"
        }
      ],
      "stateMutability": "nonpayable"
    },
    {
      "type": "function",
      "name": "batchRegisterCommitments",
      "inputs": [
        {
          "name": "users",
          "type": "address[]",
          "internalType": "address[]"
        },
        {
          "name": "commitments",
          "type": "bytes32[]",
          "internalType": "bytes32[]"
        }
      ],
      "outputs": [],
      "stateMutability": "nonpayable"
    },
    {
      "type": "function",
      "name": "eligibilityVerifier",
      "inputs": [],
      "outputs": [
        {
          "name": "",
          "type": "address",
          "internalType": "contract EligibilityVerifier"
        }
      ],
      "stateMutability": "view"
    },
    {
      "type": "function",
      "name": "getCommitment",
      "inputs": [
        {
          "name": "user",
          "type": "address",
          "internalType": "address"
        }
      ],
      "outputs": [
        {
          "name": "",
          "type": "tuple",
          "internalType": "struct ZKVerifierV2.Commitment",
          "components": [
            {
              "name": "commitmentHash",
              "type": "bytes32",
              "internalType": "bytes32"
            },
            {
              "name": "timestamp",
              "type": "uint256",
              "internalType": "uint256"
            },
            {
              "name": "isActive",
              "type": "bool",
              "internalType": "bool"
            }
          ]
        }
      ],
      "stateMutability": "view"
    },
    {
      "type": "function",
      "name": "hasActiveCommitment",
      "inputs": [
        {
          "name": "user",
          "type": "address",
          "internalType": "address"
        }
      ],
      "outputs": [
        {
          "name": "",
          "type": "bool",
          "internalType": "bool"
        }
      ],
      "stateMutability": "view"
    },
    {
      "type": "function",
      "name": "owner",
      "inputs": [],
      "outputs": [
        {
          "name": "",
          "type": "address",
          "internalType": "address"
        }
      ],
      "stateMutability": "view"
    },
    {
      "type": "function",
      "name": "rangeCommitments",
      "inputs": [
        {
          "name": "",
          "type": "uint256",
          "internalType": "uint256"
        },
        {
          "name": "",
          "type": "address",
          "internalType": "address"
        }
      ],
      "outputs": [
        {
          "name": "",
          "type": "bytes32",
          "internalType": "bytes32"
        }
      ],
      "stateMutability": "view"
    },
    {
      "type": "function",
      "name": "rangeProofVerifier",
      "inputs": [],
      "outputs": [
        {
          "name": "",
          "type": "address",
          "internalType": "contract RangeProofVerifier"
        }
      ],
      "stateMutability": "view"
    },
    {
      "type": "function",
      "name": "registerCommitment",
      "inputs": [
        {
          "name": "commitment",
          "type": "bytes32",
          "internalType": "bytes32"
        }
      ],
      "outputs": [],
      "stateMutability": "nonpayable"
    },
    {
      "type": "function",
      "name": "renounceOwnership",
      "inputs": [],
      "outputs": [],
      "stateMutability": "nonpayable"
    },
    {
      "type": "function",
      "name": "revokeCommitment",
      "inputs": [
        {
          "name": "user",
          "type": "address",
          "internalType": "address"
        }
      ],
      "outputs": [],
      "stateMutability": "nonpayable"
    },
    {
      "type": "function",
      "name": "setEligibilityVerifier",
      "inputs": [
        {
          "name": "_verifier",
          "type": "address",
          "internalType": "address"
        }
      ],
      "outputs": [],
      "stateMutability": "nonpayable"
    },
    {
      "type": "function",
      "name": "setRangeCommitment",
      "inputs": [
        {
          "name": "tokenId",
          "type": "uint256",
          "internalType": "uint256"
        },
        {
          "name": "holder",
          "type": "address",
          "internalType": "address"
        },
        {
          "name": "commitment",
          "type": "bytes32",
          "internalType": "bytes32"
        }
      ],
      "outputs": [],
      "stateMutability": "nonpayable"
    },
    {
      "type": "function",
      "name": "setRangeProofVerifier",
      "inputs": [
        {
          "name": "_verifier",
          "type": "address",
          "internalType": "address"
        }
      ],
      "outputs": [],
      "stateMutability": "nonpayable"
    },
    {
      "type": "function",
      "name": "tokenHolderVerified",
      "inputs": [
        {
          "name": "",
          "type": "uint256",
          "internalType": "uint256"
        },
        {
          "name": "",
          "type": "address",
          "internalType": "address"
        }
      ],
      "outputs": [
        {
          "name": "",
          "type": "bool",
          "internalType": "bool"
        }
      ],
      "stateMutability": "view"
    },
    {
      "type": "function",
      "name": "transferOwnership",
      "inputs": [
        {
          "name": "newOwner",
          "type": "address",
          "internalType": "address"
        }
      ],
      "outputs": [],
      "stateMutability": "nonpayable"
    },
    {
      "type": "function",
      "name": "updateHolderVerification",
      "inputs": [
        {
          "name": "tokenId",
          "type": "uint256",
          "internalType": "uint256"
        },
        {
          "name": "holder",
          "type": "address",
          "internalType": "address"
        },
        {
          "name": "isVerified",
          "type": "bool",
          "internalType": "bool"
        }
      ],
      "outputs": [],
      "stateMutability": "nonpayable"
    },
    {
      "type": "function",
      "name": "userCommitments",
      "inputs": [
        {
          "name": "",
          "type": "address",
          "internalType": "address"
        }
      ],
      "outputs": [
        {
          "name": "commitmentHash",
          "type": "bytes32",
          "internalType": "bytes32"
        },
        {
          "name": "timestamp",
          "type": "uint256",
          "internalType": "uint256"
        },
        {
          "name": "isActive",
          "type": "bool",
          "internalType": "bool"
        }
      ],
      "stateMutability": "view"
    },
    {
      "type": "function",
      "name": "verifyEligibility",
      "inputs": [
        {
          "name": "user",
          "type": "address",
          "internalType": "address"
        },
        {
          "name": "commitment",
          "type": "bytes32",
          "internalType": "bytes32"
        },
        {
          "name": "proof",
          "type": "bytes",
          "internalType": "bytes"
        }
      ],
      "outputs": [
        {
          "name": "",
          "type": "bool",
          "internalType": "bool"
        }
      ],
      "stateMutability": "view"
    },
    {
      "type": "function",
      "name": "verifyRangeProof",
      "inputs": [
        {
          "name": "tokenId",
          "type": "uint256",
          "internalType": "uint256"
        },
        {
          "name": "holder",
          "type": "address",
          "internalType": "address"
        },
        {
          "name": "minRange",
          "type": "uint256",
          "internalType": "uint256"
        },
        {
          "name": "maxRange",
          "type": "uint256",
          "internalType": "uint256"
        },
        {
          "name": "commitment",
          "type": "bytes32",
          "internalType": "bytes32"
        },
        {
          "name": "proof",
          "type": "bytes",
          "internalType": "bytes"
        }
      ],
      "outputs": [
        {
          "name": "",
          "type": "bool",
          "internalType": "bool"
        }
      ],
      "stateMutability": "nonpayable"
    },
    {
      "type": "event",
      "name": "CommitmentRegistered",
      "inputs": [
        {
          "name": "user",
          "type": "address",
          "indexed": true,
          "internalType": "address"
        },
        {
          "name": "commitment",
          "type": "bytes32",
          "indexed": false,
          "internalType": "bytes32"
        },
        {
          "name": "timestamp",
          "type": "uint256",
          "indexed": false,
          "internalType": "uint256"
        }
      ],
      "anonymous": false
    },
    {
      "type": "event",
      "name": "CommitmentRevoked",
      "inputs": [
        {
          "name": "user",
          "type": "address",
          "indexed": true,
          "internalType": "address"
        }
      ],
      "anonymous": false
    },
    {
      "type": "event",
      "name": "EligibilityVerified",
      "inputs": [
        {
          "name": "user",
          "type": "address",
          "indexed": true,
          "internalType": "address"
        },
        {
          "name": "isEligible",
          "type": "bool",
          "indexed": false,
          "internalType": "bool"
        }
      ],
      "anonymous": false
    },
    {
      "type": "event",
      "name": "EligibilityVerifierSet",
      "inputs": [
        {
          "name": "verifier",
          "type": "address",
          "indexed": false,
          "internalType": "address"
        }
      ],
      "anonymous": false
    },
    {
      "type": "event",
      "name": "Groth16ProofVerified",
      "inputs": [
        {
          "name": "user",
          "type": "address",
          "indexed": true,
          "internalType": "address"
        },
        {
          "name": "commitment",
          "type": "bytes32",
          "indexed": false,
          "internalType": "bytes32"
        },
        {
          "name": "success",
          "type": "bool",
          "indexed": false,
          "internalType": "bool"
        }
      ],
      "anonymous": false
    },
    {
      "type": "event",
      "name": "OwnershipTransferred",
      "inputs": [
        {
          "name": "previousOwner",
          "type": "address",
          "indexed": true,
          "internalType": "address"
        },
        {
          "name": "newOwner",
          "type": "address",
          "indexed": true,
          "internalType": "address"
        }
      ],
      "anonymous": false
    },
    {
      "type": "event",
      "name": "RangeCommitmentSet",
      "inputs": [
        {
          "name": "tokenId",
          "type": "uint256",
          "indexed": true,
          "internalType": "uint256"
        },
        {
          "name": "holder",
          "type": "address",
          "indexed": true,
          "internalType": "address"
        },
        {
          "name": "commitment",
          "type": "bytes32",
          "indexed": false,
          "internalType": "bytes32"
        }
      ],
      "anonymous": false
    },
    {
      "type": "event",
      "name": "RangeProofVerified",
      "inputs": [
        {
          "name": "tokenId",
          "type": "uint256",
          "indexed": true,
          "internalType": "uint256"
        },
        {
          "name": "holder",
          "type": "address",
          "indexed": true,
          "internalType": "address"
        },
        {
          "name": "isValid",
          "type": "bool",
          "indexed": false,
          "internalType": "bool"
        }
      ],
      "anonymous": false
    },
    {
      "type": "event",
      "name": "RangeProofVerifierSet",
      "inputs": [
        {
          "name": "verifier",
          "type": "address",
          "indexed": false,
          "internalType": "address"
        }
      ],
      "anonymous": false
    },
    {
      "type": "error",
      "name": "CommitmentAlreadyExists",
      "inputs": []
    },
    {
      "type": "error",
      "name": "CommitmentMismatch",
      "inputs": []
    },
    {
      "type": "error",
      "name": "InvalidProof",
      "inputs": []
    },
    {
      "type": "error",
      "name": "InvalidProofFormat",
      "inputs": []
    },
    {
      "type": "error",
      "name": "InvalidRange",
      "inputs": []
    },
    {
      "type": "error",
      "name": "NoActiveCommitment",
      "inputs": []
    },
    {
      "type": "error",
      "name": "OwnableInvalidOwner",
      "inputs": [
        {
          "name": "owner",
          "type": "address",
          "internalType": "address"
        }
      ]
    },
    {
      "type": "error",
      "name": "OwnableUnauthorizedAccount",
      "inputs": [
        {
          "name": "account",
          "type": "address",
          "internalType": "address"
        }
      ]
    },
    {
      "type": "error",
      "name": "VerifierNotSet",
      "inputs": []
    },
    {
      "type": "error",
      "name": "ZeroCommitment",
      "inputs": []
    }
  ],
  "bytecode": {
    "object": "0x60803461012c576112c490601f38839003908101601f19168201906001600160401b03821183831017610130578083916040958694855283398101031261012c57610055602061004e83610144565b9201610144565b3315610115577fe06d96e80a4473062f9d72e72b797d089f333752c4314125be8272e768ca5c95917f83f3184f095758ac4aaad03f7dfd4fc45f5b0460719332e7ef19cd3730dbbe61602080935f549060018060a01b038060018060a01b03199633888616175f558a5194823391167f8be0079c531659141344cd1fd0a4f28419497f9722a3daafe3b4186f6b6457e05f80a316918287600154161760015516809560025416176002558152a18351908152a15161116b90816101598239f35b8251631e4fbdf760e01b81525f6004820152602490fd5b5f80fd5b634e487b7160e01b5f52604160045260245ffd5b51906001600160a01b038216820361012c5756fe604060808152600480361015610013575f80fd5b5f3560e01c9081630f45dcfd146108335781632907c1f7146107e95781635b6ef032146107955781635c50aa221461075657816361e5af5e1461072e578163715018a6146106d75781638da5cb5b146106b0578163a14ea2b814610688578163a40bbbd214610649578163b4788fa4146105d5578163cb16644d146104d9578163cce613d614610478578163d9e314d8146103ab578163e6414e3714610337578163f2fde38b146102aa578163f59910561461024e578163f62b6f0e146101bd578163f8c0d8231461017a575063fa1026dd146100ee575f80fd5b346101765760203660031901126101765760609061010a610a1d565b5f82805161011781610a49565b828152826020820152015260018060a01b03165f526003602052805f2090805161014081610a49565b8254928382528260ff60026001840154936020860194855201541692019115158252825193845251602084015251151590820152f35b5f80fd5b8234610176578060031936011261017657602091610196610a33565b9080355f528352815f209060018060a01b03165f52825260ff815f20541690519015158152f35b8234610176576020366003190112610176576101d7610a1d565b6101df610fa6565b6001600160a01b03165f81815260036020528290206002015490929060ff16156102405750600290825f5260036020525f200160ff1981541690557f963eaa1310a95b879edd6190c81702bcbbfa814698155ebb751b2d4e85cd2e695f80a2005b9051638fda9af160e01b8152fd5b82346101765760c036600319011261017657610268610a33565b60a4359067ffffffffffffffff82116101765760209361028e6102a19336908301610ab7565b9160843591606435916044359135610d1c565b90519015158152f35b905034610176576020366003190112610176576102c5610a1d565b906102ce610fa6565b6001600160a01b039182169283156103215750505f54826bffffffffffffffffffffffff60a01b8216175f55167f8be0079c531659141344cd1fd0a4f28419497f9722a3daafe3b4186f6b6457e05f80a3005b905f6024925191631e4fbdf760e01b8352820152fd5b82346101765760203660031901126101765760207f83f3184f095758ac4aaad03f7dfd4fc45f5b0460719332e7ef19cd3730dbbe6191610375610a1d565b61037d610fa6565b6001600160a01b031690610392821515610bbb565b600180546001600160a01b0319168317905551908152a1005b823461017657602036600319011261017657813591821561046a57335f52600360205260ff6002835f2001541661045c57508061044c7ff94c35d8303d50dad386cbf59defef96279412f23e6ef7668e6987a3e13a9741925161040d81610a49565b8481526002602082014281528483019060018252335f526003602052855f209351845551600184015551151591019060ff801983541691151516179055565b80519283524260208401523392a2005b905163145718a760e01b8152fd5b90516351bda03d60e01b8152fd5b823461017657606036600319011261017657610492610a33565b90604435918215158303610176576104d7936104ac610fa6565b80355f52602052815f209060018060a01b03165f526020525f209060ff801983541691151516179055565b005b905034610176576060366003190112610176578035906104f7610a33565b6001600160a01b03908116936044359290913386149081156105c8575b501561059557821561056157507f885d4d1b37ab3ae93fea06e6f8a3d174580b49726ce3aff481b2c4c4252a9f4491602091845f5260058352805f20865f52835281815f205551908152a3005b6020606492519162461bcd60e51b8352820152600f60248201526e16995c9bc818dbdb5b5a5d1b595b9d608a1b6044820152fd5b6020606492519162461bcd60e51b8352820152600e60248201526d139bdd08185d5d1a1bdc9a5e995960921b6044820152fd5b90505f541633145f610514565b82346101765760203660031901126101765760207fe06d96e80a4473062f9d72e72b797d089f333752c4314125be8272e768ca5c9591610613610a1d565b61061b610fa6565b6001600160a01b031690610630821515610bbb565b600280546001600160a01b0319168317905551908152a1005b8234610176578060031936011261017657602091610665610a33565b90355f5260058352815f209060018060a01b03165f528252805f20549051908152f35b8234610176575f3660031901126101765760015490516001600160a01b039091168152602090f35b8234610176575f366003190112610176575f5490516001600160a01b039091168152602090f35b34610176575f366003190112610176576106ef610fa6565b5f80546001600160a01b0319811682556001600160a01b03167f8be0079c531659141344cd1fd0a4f28419497f9722a3daafe3b4186f6b6457e08280a3005b8234610176575f3660031901126101765760025490516001600160a01b039091168152602090f35b8234610176576020366003190112610176576020906001600160a01b0361077b610a1d565b165f526003825260ff6002825f2001541690519015158152f35b8234610176576020366003190112610176576060906001600160a01b036107ba610a1d565b165f526003602052805f209081549160ff60026001830154920154169082519384526020840152151590820152f35b823461017657606036600319011261017657610803610a1d565b916044359267ffffffffffffffff8411610176576108296102a192602095369101610ab7565b9060243590610b45565b823461017657806003193601126101765767ffffffffffffffff82358181116101765761086390369085016109ec565b9290916024359081116101765761087d90369086016109ec565b919094610888610fa6565b8285036109b857505f5b84811061089b57005b806108a96001928589610b0d565b35156109b357818060a01b03806108c96108c4848a8a610b0d565b610b31565b165f526003846020928284528a8a868a8c600260ff81895f200154166109a4578385836109838a6108c4958f9a7ff94c35d8303d50dad386cbf59defef96279412f23e6ef7668e6987a3e13a97419f988f88908f9b61098e9f6109328f6109889f908691610b0d565b35978351986109408a610a49565b895261095e6108c4838b0196428852868c01996001998a8c52610b0d565b165f52525f2094518555519084015551151591019060ff801983541691151516179055565b610b0d565b93610b0d565b3594835195865242908601521692a25b01610892565b5050505050505050505061099e565b61099e565b6020606492519162461bcd60e51b8352820152600f60248201526e098cadccee8d040dad2e6dac2e8c6d608b1b6044820152fd5b9181601f840112156101765782359167ffffffffffffffff8311610176576020808501948460051b01011161017657565b600435906001600160a01b038216820361017657565b602435906001600160a01b038216820361017657565b6060810190811067ffffffffffffffff821117610a6557604052565b634e487b7160e01b5f52604160045260245ffd5b6040810190811067ffffffffffffffff821117610a6557604052565b90601f8019910116810190811067ffffffffffffffff821117610a6557604052565b81601f820112156101765780359067ffffffffffffffff8211610a655760405192610aec601f8401601f191660200185610a95565b8284526020838301011161017657815f926020809301838601378301015290565b9190811015610b1d5760051b0190565b634e487b7160e01b5f52603260045260245ffd5b356001600160a01b03811681036101765790565b91909160018060a01b03165f52600360205260405f20604051610b6781610a49565b60ff600283549384845260018101546020850152015416159060408215910152610bb4578203610bae578051610ba257602081519101201490565b610bab91610fd1565b90565b50505f90565b5050505f90565b15610bc257565b60405162461bcd60e51b815260206004820152600c60248201526b5a65726f206164647265737360a01b6044820152606490fd5b9080601f830112156101765760405191610c0f83610a79565b82906040810192831161017657905b828210610c2b5750505090565b8151815260209182019101610c1e565b81601f820112156101765760409060405192610c5684610a79565b8390608083019281841161017657915b838310610c7557505050505090565b60208591610c838486610bf6565b815201920191610c66565b90816020910312610176575180151581036101765790565b5f915b60028310610cb657505050565b600190825181526020809101920192019190610ca9565b905f905b600280831015610d165783515f90835b838310610cff57505050506020604060019201930191019091610cd1565b600190825181526020809101920192019190610ce1565b50505050565b6002549295919390926001600160a01b03919082168015610f9457818811610f82578351936020948101926101608287860195031261017657610d6184878401610bf6565b610d6e8560608501610c3b565b91610d7c8660e08601610bf6565b9b8661013f8601121561017657604096875195610d9887610a49565b86906101808101928311610176576101208c9101915b838310610f72575050505084511490811591610f64575b508015610f57575b610f1e5791610e0d610df99a9b610e0389969488519d8e976308a3cff560e11b89526004890190610ca6565b6044870190610ccd565b60c4850190610ca6565b5f61010484015b60038210610f055750505081610164915afa958615610efb575f96610ea8575b5085967f6a39210200ee861f69bf07c7f86450c1ac02891371e00b70501c7e8a4a52211b949596610e6e575b50519486151586521693a390565b855f5260048452815f2083881690815f528552825f20600160ff19825416179055865f5260058552825f20905f528452815f20555f610e60565b7f6a39210200ee861f69bf07c7f86450c1ac02891371e00b70501c7e8a4a52211b94959650610eec90843d8611610ef4575b610ee48183610a95565b810190610c8e565b959493610e34565b503d610eda565b50513d5f823e3d90fd5b8251815288958c95509283019260019092019101610e14565b5050505090919294507f6a39210200ee861f69bf07c7f86450c1ac02891371e00b70501c7e8a4a52211b93955051945f86521693a35f90565b5089858401511415610dcd565b90508784015114155f610dc5565b82518152918101918c9101610dae565b60405163561ce9bb60e01b8152600490fd5b604051635fce01bb60e01b8152600490fd5b5f546001600160a01b03163303610fb957565b60405163118cdaa760e01b8152336004820152602490fd5b600180549192916001600160a01b0316908115610f94578251926020938101818582019161012093849103126101765761100d82878301610bf6565b9661101b8360608401610c3b565b926110298160e08501610bf6565b928161013f82011215610176576040519589870187811067ffffffffffffffff821117610a65576040528691610140810193841161017657019089905b838310611125575050505083510361111a57916110b68695936110ac6110a29996946040519a8b986343753b4d60e01b8a5260048a0190610ca6565b6044880190610ccd565b60c4860190610ca6565b5f61010485015b838210611103575050505081610124915afa9182915f936110e4575b5050610bab57505f90565b6110fb929350803d10610ef457610ee48183610a95565b905f806110d9565b8251815287968996509283019291840191016110bd565b505050505050505f90565b82518152918101918a910161106656fea2646970667358221220cf7f9445f1179b4b526abb0b06fad0eedd952a3921ff708844da092690f6f10f64736f6c63430008180033",
    "linkReferences": {}
  },
  "methodIdentifiers": {
    "batchRegisterCommitments(address[],bytes32[])": "0f45dcfd",
    "eligibilityVerifier()": "a14ea2b8",
    "getCommitment(address)": "fa1026dd",
    "hasActiveCommitment(address)": "5c50aa22",
    "owner()": "8da5cb5b",
    "rangeCommitments(uint256,address)": "a40bbbd2",
    "rangeProofVerifier()": "61e5af5e",
    "registerCommitment(bytes32)": "d9e314d8",
    "renounceOwnership()": "715018a6",
    "revokeCommitment(address)": "f62b6f0e",
    "setEligibilityVerifier(address)": "e6414e37",
    "setRangeCommitment(uint256,address,bytes32)": "cb16644d",
    "setRangeProofVerifier(address)": "b4788fa4",
    "tokenHolderVerified(uint256,address)": "f8c0d823",
    "transferOwnership(address)": "f2fde38b",
    "updateHolderVerification(uint256,address,bool)": "cce613d6",
    "userCommitments(address)": "5b6ef032",
    "verifyEligibility(address,bytes32,bytes)": "2907c1f7",
    "verifyRangeProof(uint256,address,uint256,uint256,bytes32,bytes)": "f5991056"
  },
  "id": 34
}